{
  "_format": "hh-sol-artifact-1",
  "contractName": "Marketplace",
  "sourceName": "src/backend/contracts/Marketplace.sol",
  "abi": [
    {
      "inputs": [
        {
          "internalType": "uint256",
          "name": "_feePercent",
          "type": "uint256"
        }
      ],
      "stateMutability": "nonpayable",
      "type": "constructor"
    },
    {
      "anonymous": false,
      "inputs": [
        {
          "indexed": false,
          "internalType": "uint256",
          "name": "itemId",
          "type": "uint256"
        },
        {
          "indexed": true,
          "internalType": "address",
          "name": "nft",
          "type": "address"
        },
        {
          "indexed": false,
          "internalType": "uint256",
          "name": "tokenId",
          "type": "uint256"
        },
        {
          "indexed": false,
          "internalType": "uint256",
          "name": "price",
          "type": "uint256"
        },
        {
          "indexed": true,
          "internalType": "address",
          "name": "seller",
          "type": "address"
        },
        {
          "indexed": true,
          "internalType": "address",
          "name": "buyer",
          "type": "address"
        }
      ],
      "name": "Bought",
      "type": "event"
    },
    {
      "anonymous": false,
      "inputs": [
        {
          "indexed": true,
          "internalType": "address",
          "name": "feeAccount",
          "type": "address"
        },
        {
          "indexed": false,
          "internalType": "uint256",
          "name": "amount",
          "type": "uint256"
        }
      ],
      "name": "FeeTransferred",
      "type": "event"
    },
    {
      "anonymous": false,
      "inputs": [
        {
          "indexed": false,
          "internalType": "uint256",
          "name": "itemId",
          "type": "uint256"
        },
        {
          "indexed": true,
          "internalType": "address",
          "name": "nft",
          "type": "address"
        },
        {
          "indexed": false,
          "internalType": "uint256",
          "name": "tokenId",
          "type": "uint256"
        },
        {
          "indexed": false,
          "internalType": "uint256",
          "name": "price",
          "type": "uint256"
        },
        {
          "indexed": true,
          "internalType": "address",
          "name": "seller",
          "type": "address"
        }
      ],
      "name": "Offered",
      "type": "event"
    },
    {
      "anonymous": false,
      "inputs": [
        {
          "indexed": true,
          "internalType": "address",
          "name": "previousOwner",
          "type": "address"
        },
        {
          "indexed": true,
          "internalType": "address",
          "name": "newOwner",
          "type": "address"
        }
      ],
      "name": "OwnershipTransferred",
      "type": "event"
    },
    {
      "anonymous": false,
      "inputs": [
        {
          "indexed": true,
          "internalType": "address",
          "name": "seller",
          "type": "address"
        },
        {
          "indexed": false,
          "internalType": "uint256",
          "name": "amount",
          "type": "uint256"
        }
      ],
      "name": "SellerPaid",
      "type": "event"
    },
    {
      "inputs": [],
      "name": "feeAccount",
      "outputs": [
        {
          "internalType": "address payable",
          "name": "",
          "type": "address"
        }
      ],
      "stateMutability": "view",
      "type": "function"
    },
    {
      "inputs": [],
      "name": "feePercent",
      "outputs": [
        {
          "internalType": "uint256",
          "name": "",
          "type": "uint256"
        }
      ],
      "stateMutability": "view",
      "type": "function"
    },
    {
      "inputs": [
        {
          "internalType": "uint256",
          "name": "_itemId",
          "type": "uint256"
        },
        {
          "internalType": "address",
          "name": "_buyer",
          "type": "address"
        }
      ],
      "name": "getPurchaseInfo",
      "outputs": [
        {
          "internalType": "uint256",
          "name": "purchaseTime",
          "type": "uint256"
        },
        {
          "internalType": "uint256",
          "name": "accessDuration",
          "type": "uint256"
        }
      ],
      "stateMutability": "view",
      "type": "function"
    },
    {
      "inputs": [
        {
          "internalType": "uint256",
          "name": "_itemId",
          "type": "uint256"
        }
      ],
      "name": "getTotalPrice",
      "outputs": [
        {
          "internalType": "uint256",
          "name": "",
          "type": "uint256"
        }
      ],
      "stateMutability": "view",
      "type": "function"
    },
    {
      "inputs": [
        {
          "internalType": "uint256",
          "name": "_itemId",
          "type": "uint256"
        },
        {
          "internalType": "address",
          "name": "_user",
          "type": "address"
        }
      ],
      "name": "hasAccess",
      "outputs": [
        {
          "internalType": "bool",
          "name": "",
          "type": "bool"
        }
      ],
      "stateMutability": "view",
      "type": "function"
    },
    {
      "inputs": [],
      "name": "itemCount",
      "outputs": [
        {
          "internalType": "uint256",
          "name": "",
          "type": "uint256"
        }
      ],
      "stateMutability": "view",
      "type": "function"
    },
    {
      "inputs": [
        {
          "internalType": "uint256",
          "name": "",
          "type": "uint256"
        }
      ],
      "name": "items",
      "outputs": [
        {
          "internalType": "uint256",
          "name": "itemId",
          "type": "uint256"
        },
        {
          "internalType": "contract IERC721",
          "name": "nft",
          "type": "address"
        },
        {
          "internalType": "uint256",
          "name": "tokenId",
          "type": "uint256"
        },
        {
          "internalType": "uint256",
          "name": "price",
          "type": "uint256"
        },
        {
          "internalType": "address payable",
          "name": "seller",
          "type": "address"
        },
        {
          "internalType": "uint256",
          "name": "accessDuration",
          "type": "uint256"
        },
        {
          "internalType": "uint256",
          "name": "dynamicPrice",
          "type": "uint256"
        },
        {
          "internalType": "uint256",
          "name": "_originalPurchasePrice",
          "type": "uint256"
        }
      ],
      "stateMutability": "view",
      "type": "function"
    },
    {
      "inputs": [
        {
          "internalType": "contract IERC721",
          "name": "_nft",
          "type": "address"
        },
        {
          "internalType": "uint256",
          "name": "_tokenId",
          "type": "uint256"
        },
        {
          "internalType": "uint256",
          "name": "_price",
          "type": "uint256"
        },
        {
          "internalType": "uint256",
          "name": "_accessDuration",
          "type": "uint256"
        }
      ],
      "name": "makeItem",
      "outputs": [],
      "stateMutability": "nonpayable",
      "type": "function"
    },
    {
      "inputs": [],
      "name": "owner",
      "outputs": [
        {
          "internalType": "address",
          "name": "",
          "type": "address"
        }
      ],
      "stateMutability": "view",
      "type": "function"
    },
    {
      "inputs": [
        {
          "internalType": "uint256",
          "name": "_itemId",
          "type": "uint256"
        }
      ],
      "name": "purchaseItem",
      "outputs": [],
      "stateMutability": "payable",
      "type": "function"
    },
    {
      "inputs": [
        {
          "internalType": "uint256",
          "name": "_itemId",
          "type": "uint256"
        },
        {
          "internalType": "uint256",
          "name": "_renewalPrice",
          "type": "uint256"
        }
      ],
      "name": "renewAccess",
      "outputs": [],
      "stateMutability": "payable",
      "type": "function"
    },
    {
      "inputs": [],
      "name": "renounceOwnership",
      "outputs": [],
      "stateMutability": "nonpayable",
      "type": "function"
    },
    {
      "inputs": [
        {
          "internalType": "address payable",
          "name": "_newFeeAccount",
          "type": "address"
        }
      ],
      "name": "setFeeAccount",
      "outputs": [],
      "stateMutability": "nonpayable",
      "type": "function"
    },
    {
      "inputs": [
        {
          "internalType": "uint256",
          "name": "_newFeePercent",
          "type": "uint256"
        }
      ],
      "name": "setFeePercent",
      "outputs": [],
      "stateMutability": "nonpayable",
      "type": "function"
    },
    {
      "inputs": [
        {
          "internalType": "address",
          "name": "newOwner",
          "type": "address"
        }
      ],
      "name": "transferOwnership",
      "outputs": [],
      "stateMutability": "nonpayable",
      "type": "function"
    }
  ],
  "bytecode": "0x60806040523480156200001157600080fd5b5060405162001f4f38038062001f4f833981810160405281019062000037919062000193565b60016000819055506200005f62000053620000ae60201b60201c565b620000b660201b60201c565b33600260006101000a81548173ffffffffffffffffffffffffffffffffffffffff021916908373ffffffffffffffffffffffffffffffffffffffff1602179055508060038190555050620001e3565b600033905090565b6000600160009054906101000a900473ffffffffffffffffffffffffffffffffffffffff16905081600160006101000a81548173ffffffffffffffffffffffffffffffffffffffff021916908373ffffffffffffffffffffffffffffffffffffffff1602179055508173ffffffffffffffffffffffffffffffffffffffff168173ffffffffffffffffffffffffffffffffffffffff167f8be0079c531659141344cd1fd0a4f28419497f9722a3daafe3b4186f6b6457e060405160405180910390a35050565b6000815190506200018d81620001c9565b92915050565b600060208284031215620001a657600080fd5b6000620001b6848285016200017c565b91505092915050565b6000819050919050565b620001d481620001bf565b8114620001e057600080fd5b50565b611d5c80620001f36000396000f3fe6080604052600436106100e85760003560e01c80637fd6f15c1161008a578063ced1419811610059578063ced14198146102ea578063d38ea5bf14610327578063de1b60ab14610343578063f2fde38b1461035f576100e8565b80637fd6f15c146102135780638da5cb5b1461023e578063bfb231d214610269578063ca7dd375146102ad576100e8565b8063696aae08116100c6578063696aae081461017f5780636bfb0d01146101a8578063715018a6146101d35780637ce3489b146101ea576100e8565b80631a01e315146100ed5780634b023cf81461012b57806365e17c9d14610154575b600080fd5b3480156100f957600080fd5b50610114600480360381019061010f91906113a5565b610388565b60405161012292919061181c565b60405180910390f35b34801561013757600080fd5b50610152600480360381019061014d91906112f0565b6103f5565b005b34801561016057600080fd5b50610169610441565b60405161017691906115f6565b60405180910390f35b34801561018b57600080fd5b506101a660048036038101906101a19190611319565b610467565b005b3480156101b457600080fd5b506101bd6106bb565b6040516101ca9190611783565b60405180910390f35b3480156101df57600080fd5b506101e86106c1565b005b3480156101f657600080fd5b50610211600480360381019061020c919061137c565b6106d5565b005b34801561021f57600080fd5b506102286106e7565b6040516102359190611783565b60405180910390f35b34801561024a57600080fd5b506102536106ed565b60405161026091906115db565b60405180910390f35b34801561027557600080fd5b50610290600480360381019061028b919061137c565b610717565b6040516102a498979695949392919061179e565b60405180910390f35b3480156102b957600080fd5b506102d460048036038101906102cf919061137c565b61079f565b6040516102e19190611783565b60405180910390f35b3480156102f657600080fd5b50610311600480360381019061030c91906113a5565b6107f2565b60405161031e9190611648565b60405180910390f35b610341600480360381019061033c919061137c565b61086d565b005b61035d600480360381019061035891906113e1565b610cb8565b005b34801561036b57600080fd5b50610386600480360381019061038191906112c7565b611007565b005b60008060006005600086815260200190815260200160002090508060080160008573ffffffffffffffffffffffffffffffffffffffff1673ffffffffffffffffffffffffffffffffffffffff16815260200190815260200160002054925080600501549150509250929050565b6103fd61108b565b80600260006101000a81548173ffffffffffffffffffffffffffffffffffffffff021916908373ffffffffffffffffffffffffffffffffffffffff16021790555050565b600260009054906101000a900473ffffffffffffffffffffffffffffffffffffffff1681565b61046f611109565b600082116104b2576040517f08c379a00000000000000000000000000000000000000000000000000000000081526004016104a990611663565b60405180910390fd5b600081116104f5576040517f08c379a00000000000000000000000000000000000000000000000000000000081526004016104ec906116a3565b60405180910390fd5b6004600081548092919061050890611a3d565b91905055508373ffffffffffffffffffffffffffffffffffffffff166323b872dd3330866040518463ffffffff1660e01b815260040161054a93929190611611565b600060405180830381600087803b15801561056457600080fd5b505af1158015610578573d6000803e3d6000fd5b50505050600060056000600454815260200190815260200160002090506004548160000181905550848160010160006101000a81548173ffffffffffffffffffffffffffffffffffffffff021916908373ffffffffffffffffffffffffffffffffffffffff160217905550838160020181905550828160030181905550338160040160006101000a81548173ffffffffffffffffffffffffffffffffffffffff021916908373ffffffffffffffffffffffffffffffffffffffff1602179055508181600501819055503373ffffffffffffffffffffffffffffffffffffffff168573ffffffffffffffffffffffffffffffffffffffff167f655a0cf9c8db81512be9a76dc1c5ae5380b8816ce6ad659cd61b715e2999d59a60045487876040516106a493929190611845565b60405180910390a3506106b5611159565b50505050565b60045481565b6106c961108b565b6106d36000611163565b565b6106dd61108b565b8060038190555050565b60035481565b6000600160009054906101000a900473ffffffffffffffffffffffffffffffffffffffff16905090565b60056020528060005260406000206000915090508060000154908060010160009054906101000a900473ffffffffffffffffffffffffffffffffffffffff16908060020154908060030154908060040160009054906101000a900473ffffffffffffffffffffffffffffffffffffffff16908060050154908060060154908060070154905088565b60006107eb60646107dd60035460646107b89190611898565b600560008781526020019081526020016000206003015461122990919063ffffffff16565b61123f90919063ffffffff16565b9050919050565b60008060056000858152602001908152602001600020905060008160080160008573ffffffffffffffffffffffffffffffffffffffff1673ffffffffffffffffffffffffffffffffffffffff1681526020019081526020016000205490508160050154816108609190611898565b4211159250505092915050565b610875611109565b600060056000838152602001908152602001600020905080600301543410156108d3576040517f08c379a00000000000000000000000000000000000000000000000000000000081526004016108ca90611703565b60405180910390fd5b60006108fd60646108ef6003543461122990919063ffffffff16565b61123f90919063ffffffff16565b90506000610914823461125590919063ffffffff16565b905060008360040160009054906101000a900473ffffffffffffffffffffffffffffffffffffffff1673ffffffffffffffffffffffffffffffffffffffff1682604051610960906115c6565b60006040518083038185875af1925050503d806000811461099d576040519150601f19603f3d011682016040523d82523d6000602084013e6109a2565b606091505b50509050806109e6576040517f08c379a00000000000000000000000000000000000000000000000000000000081526004016109dd906116e3565b60405180910390fd5b8360040160009054906101000a900473ffffffffffffffffffffffffffffffffffffffff1673ffffffffffffffffffffffffffffffffffffffff167fcb4a9094da4df77fb2c0dbaa5047660b1237e61d82a02176c1be74ca757f253183604051610a509190611783565b60405180910390a26000600260009054906101000a900473ffffffffffffffffffffffffffffffffffffffff1673ffffffffffffffffffffffffffffffffffffffff1684604051610aa0906115c6565b60006040518083038185875af1925050503d8060008114610add576040519150601f19603f3d011682016040523d82523d6000602084013e610ae2565b606091505b5050905080610b26576040517f08c379a0000000000000000000000000000000000000000000000000000000008152600401610b1d906116c3565b60405180910390fd5b600260009054906101000a900473ffffffffffffffffffffffffffffffffffffffff1673ffffffffffffffffffffffffffffffffffffffff167f34e8a84e537ed93d93ddf39a78816dcbc74df8397c635838b8cc973d4fa943f885604051610b8e9190611783565b60405180910390a2428560080160003373ffffffffffffffffffffffffffffffffffffffff1673ffffffffffffffffffffffffffffffffffffffff168152602001908152602001600020819055503373ffffffffffffffffffffffffffffffffffffffff168560040160009054906101000a900473ffffffffffffffffffffffffffffffffffffffff1673ffffffffffffffffffffffffffffffffffffffff168660010160009054906101000a900473ffffffffffffffffffffffffffffffffffffffff1673ffffffffffffffffffffffffffffffffffffffff167f8b4c9c8a607d67b321582dd8461041b1dc2ceeca70c8b7f37f8e02095cf2e76d89896002015434604051610ca093929190611845565b60405180910390a45050505050610cb5611159565b50565b610cc0611109565b600060056000848152602001908152602001600020905081341015610d1a576040517f08c379a0000000000000000000000000000000000000000000000000000000008152600401610d1190611743565b60405180910390fd5b428160080160003373ffffffffffffffffffffffffffffffffffffffff1673ffffffffffffffffffffffffffffffffffffffff1681526020019081526020016000208190555060008160040160009054906101000a900473ffffffffffffffffffffffffffffffffffffffff1673ffffffffffffffffffffffffffffffffffffffff1683604051610daa906115c6565b60006040518083038185875af1925050503d8060008114610de7576040519150601f19603f3d011682016040523d82523d6000602084013e610dec565b606091505b5050905080610e30576040517f08c379a0000000000000000000000000000000000000000000000000000000008152600401610e27906116e3565b60405180910390fd5b8160040160009054906101000a900473ffffffffffffffffffffffffffffffffffffffff1673ffffffffffffffffffffffffffffffffffffffff167fcb4a9094da4df77fb2c0dbaa5047660b1237e61d82a02176c1be74ca757f253184604051610e9a9190611783565b60405180910390a26000610eb7843461125590919063ffffffff16565b90506000600260009054906101000a900473ffffffffffffffffffffffffffffffffffffffff1673ffffffffffffffffffffffffffffffffffffffff1682604051610f01906115c6565b60006040518083038185875af1925050503d8060008114610f3e576040519150601f19603f3d011682016040523d82523d6000602084013e610f43565b606091505b5050905080610f87576040517f08c379a0000000000000000000000000000000000000000000000000000000008152600401610f7e906116c3565b60405180910390fd5b600260009054906101000a900473ffffffffffffffffffffffffffffffffffffffff1673ffffffffffffffffffffffffffffffffffffffff167f34e8a84e537ed93d93ddf39a78816dcbc74df8397c635838b8cc973d4fa943f883604051610fef9190611783565b60405180910390a250505050611003611159565b5050565b61100f61108b565b600073ffffffffffffffffffffffffffffffffffffffff168173ffffffffffffffffffffffffffffffffffffffff16141561107f576040517f08c379a000000000000000000000000000000000000000000000000000000000815260040161107690611683565b60405180910390fd5b61108881611163565b50565b61109361126b565b73ffffffffffffffffffffffffffffffffffffffff166110b16106ed565b73ffffffffffffffffffffffffffffffffffffffff1614611107576040517f08c379a00000000000000000000000000000000000000000000000000000000081526004016110fe90611723565b60405180910390fd5b565b6002600054141561114f576040517f08c379a000000000000000000000000000000000000000000000000000000000815260040161114690611763565b60405180910390fd5b6002600081905550565b6001600081905550565b6000600160009054906101000a900473ffffffffffffffffffffffffffffffffffffffff16905081600160006101000a81548173ffffffffffffffffffffffffffffffffffffffff021916908373ffffffffffffffffffffffffffffffffffffffff1602179055508173ffffffffffffffffffffffffffffffffffffffff168173ffffffffffffffffffffffffffffffffffffffff167f8be0079c531659141344cd1fd0a4f28419497f9722a3daafe3b4186f6b6457e060405160405180910390a35050565b60008183611237919061191f565b905092915050565b6000818361124d91906118ee565b905092915050565b600081836112639190611979565b905092915050565b600033905090565b60008135905061128281611cca565b92915050565b60008135905061129781611ce1565b92915050565b6000813590506112ac81611cf8565b92915050565b6000813590506112c181611d0f565b92915050565b6000602082840312156112d957600080fd5b60006112e784828501611273565b91505092915050565b60006020828403121561130257600080fd5b600061131084828501611288565b91505092915050565b6000806000806080858703121561132f57600080fd5b600061133d8782880161129d565b945050602061134e878288016112b2565b935050604061135f878288016112b2565b9250506060611370878288016112b2565b91505092959194509250565b60006020828403121561138e57600080fd5b600061139c848285016112b2565b91505092915050565b600080604083850312156113b857600080fd5b60006113c6858286016112b2565b92505060206113d785828601611273565b9150509250929050565b600080604083850312156113f457600080fd5b6000611402858286016112b2565b9250506020611413858286016112b2565b9150509250929050565b611426816119bf565b82525050565b611435816119ad565b82525050565b611444816119d1565b82525050565b61145381611a19565b82525050565b6000611466601f83611887565b915061147182611ae4565b602082019050919050565b6000611489602683611887565b915061149482611b0d565b604082019050919050565b60006114ac602983611887565b91506114b782611b5c565b604082019050919050565b60006114cf601283611887565b91506114da82611bab565b602082019050919050565b60006114f2601583611887565b91506114fd82611bd4565b602082019050919050565b6000611515602483611887565b915061152082611bfd565b604082019050919050565b6000611538602083611887565b915061154382611c4c565b602082019050919050565b600061155b60008361187c565b915061156682611c75565b600082019050919050565b600061157e602083611887565b915061158982611c78565b602082019050919050565b60006115a1601f83611887565b91506115ac82611ca1565b602082019050919050565b6115c081611a0f565b82525050565b60006115d18261154e565b9150819050919050565b60006020820190506115f0600083018461142c565b92915050565b600060208201905061160b600083018461141d565b92915050565b6000606082019050611626600083018661142c565b611633602083018561142c565b61164060408301846115b7565b949350505050565b600060208201905061165d600083018461143b565b92915050565b6000602082019050818103600083015261167c81611459565b9050919050565b6000602082019050818103600083015261169c8161147c565b9050919050565b600060208201905081810360008301526116bc8161149f565b9050919050565b600060208201905081810360008301526116dc816114c2565b9050919050565b600060208201905081810360008301526116fc816114e5565b9050919050565b6000602082019050818103600083015261171c81611508565b9050919050565b6000602082019050818103600083015261173c8161152b565b9050919050565b6000602082019050818103600083015261175c81611571565b9050919050565b6000602082019050818103600083015261177c81611594565b9050919050565b600060208201905061179860008301846115b7565b92915050565b6000610100820190506117b4600083018b6115b7565b6117c1602083018a61144a565b6117ce60408301896115b7565b6117db60608301886115b7565b6117e8608083018761141d565b6117f560a08301866115b7565b61180260c08301856115b7565b61180f60e08301846115b7565b9998505050505050505050565b600060408201905061183160008301856115b7565b61183e60208301846115b7565b9392505050565b600060608201905061185a60008301866115b7565b61186760208301856115b7565b61187460408301846115b7565b949350505050565b600081905092915050565b600082825260208201905092915050565b60006118a382611a0f565b91506118ae83611a0f565b9250827fffffffffffffffffffffffffffffffffffffffffffffffffffffffffffffffff038211156118e3576118e2611a86565b5b828201905092915050565b60006118f982611a0f565b915061190483611a0f565b92508261191457611913611ab5565b5b828204905092915050565b600061192a82611a0f565b915061193583611a0f565b9250817fffffffffffffffffffffffffffffffffffffffffffffffffffffffffffffffff048311821515161561196e5761196d611a86565b5b828202905092915050565b600061198482611a0f565b915061198f83611a0f565b9250828210156119a2576119a1611a86565b5b828203905092915050565b60006119b8826119ef565b9050919050565b60006119ca826119ef565b9050919050565b60008115159050919050565b60006119e8826119ad565b9050919050565b600073ffffffffffffffffffffffffffffffffffffffff82169050919050565b6000819050919050565b6000611a2482611a2b565b9050919050565b6000611a36826119ef565b9050919050565b6000611a4882611a0f565b91507fffffffffffffffffffffffffffffffffffffffffffffffffffffffffffffffff821415611a7b57611a7a611a86565b5b600182019050919050565b7f4e487b7100000000000000000000000000000000000000000000000000000000600052601160045260246000fd5b7f4e487b7100000000000000000000000000000000000000000000000000000000600052601260045260246000fd5b7f5072696365206d7573742062652067726561746572207468616e207a65726f00600082015250565b7f4f776e61626c653a206e6577206f776e657220697320746865207a65726f206160008201527f6464726573730000000000000000000000000000000000000000000000000000602082015250565b7f416363657373206475726174696f6e206d75737420626520677265617465722060008201527f7468616e207a65726f0000000000000000000000000000000000000000000000602082015250565b7f466565207061796d656e74206661696c65640000000000000000000000000000600082015250565b7f53656c6c6572207061796d656e74206661696c65640000000000000000000000600082015250565b7f4e6f7420656e6f75676820657468657220746f20636f766572206974656d207060008201527f7269636500000000000000000000000000000000000000000000000000000000602082015250565b7f4f776e61626c653a2063616c6c6572206973206e6f7420746865206f776e6572600082015250565b50565b7f4e6f7420656e6f75676820657468657220746f2072656e657720616363657373600082015250565b7f5265656e7472616e637947756172643a207265656e7472616e742063616c6c00600082015250565b611cd3816119ad565b8114611cde57600080fd5b50565b611cea816119bf565b8114611cf557600080fd5b50565b611d01816119dd565b8114611d0c57600080fd5b50565b611d1881611a0f565b8114611d2357600080fd5b5056fea264697066735822122010f9b2daad76ad0465d4019078fa9b3e851b10b7c999d9ab75a3bc3ef18e259564736f6c63430008040033",
  "linkReferences": {},
  "deployedLinkReferences": {}
}