{
  "_format": "hh-sol-artifact-1",
  "contractName": "Marketplace",
  "sourceName": "src/backend/contracts/Marketplace.sol",
  "abi": [
    {
      "inputs": [
        {
          "internalType": "uint256",
          "name": "_feePercent",
          "type": "uint256"
        },
        {
          "internalType": "address payable",
          "name": "_swarMusicAccount",
          "type": "address"
        }
      ],
      "stateMutability": "nonpayable",
      "type": "constructor"
    },
    {
      "anonymous": false,
      "inputs": [
        {
          "indexed": false,
          "internalType": "uint256",
          "name": "itemId",
          "type": "uint256"
        },
        {
          "indexed": true,
          "internalType": "address",
          "name": "nft",
          "type": "address"
        },
        {
          "indexed": false,
          "internalType": "uint256",
          "name": "tokenId",
          "type": "uint256"
        },
        {
          "indexed": false,
          "internalType": "uint256",
          "name": "price",
          "type": "uint256"
        },
        {
          "indexed": true,
          "internalType": "address",
          "name": "seller",
          "type": "address"
        },
        {
          "indexed": true,
          "internalType": "address",
          "name": "buyer",
          "type": "address"
        }
      ],
      "name": "Bought",
      "type": "event"
    },
    {
      "anonymous": false,
      "inputs": [
        {
          "indexed": true,
          "internalType": "address",
          "name": "feeAccount",
          "type": "address"
        },
        {
          "indexed": false,
          "internalType": "uint256",
          "name": "amount",
          "type": "uint256"
        }
      ],
      "name": "FeeTransferred",
      "type": "event"
    },
    {
      "anonymous": false,
      "inputs": [
        {
          "indexed": false,
          "internalType": "uint256",
          "name": "itemId",
          "type": "uint256"
        },
        {
          "indexed": true,
          "internalType": "address",
          "name": "nft",
          "type": "address"
        },
        {
          "indexed": false,
          "internalType": "uint256",
          "name": "tokenId",
          "type": "uint256"
        },
        {
          "indexed": false,
          "internalType": "uint256",
          "name": "price",
          "type": "uint256"
        },
        {
          "indexed": true,
          "internalType": "address",
          "name": "seller",
          "type": "address"
        }
      ],
      "name": "Offered",
      "type": "event"
    },
    {
      "anonymous": false,
      "inputs": [
        {
          "indexed": true,
          "internalType": "address",
          "name": "previousOwner",
          "type": "address"
        },
        {
          "indexed": true,
          "internalType": "address",
          "name": "newOwner",
          "type": "address"
        }
      ],
      "name": "OwnershipTransferred",
      "type": "event"
    },
    {
      "anonymous": false,
      "inputs": [
        {
          "indexed": true,
          "internalType": "address",
          "name": "artist",
          "type": "address"
        },
        {
          "indexed": false,
          "internalType": "uint256",
          "name": "amount",
          "type": "uint256"
        }
      ],
      "name": "RoyaltiesWithdrawn",
      "type": "event"
    },
    {
      "anonymous": false,
      "inputs": [
        {
          "indexed": true,
          "internalType": "address",
          "name": "seller",
          "type": "address"
        },
        {
          "indexed": false,
          "internalType": "uint256",
          "name": "amount",
          "type": "uint256"
        }
      ],
      "name": "SellerPaid",
      "type": "event"
    },
    {
      "inputs": [
        {
          "internalType": "address",
          "name": "",
          "type": "address"
        }
      ],
      "name": "artistEarningsMapping",
      "outputs": [
        {
          "internalType": "uint256",
          "name": "",
          "type": "uint256"
        }
      ],
      "stateMutability": "view",
      "type": "function"
    },
    {
      "inputs": [],
      "name": "feeAccount",
      "outputs": [
        {
          "internalType": "address payable",
          "name": "",
          "type": "address"
        }
      ],
      "stateMutability": "view",
      "type": "function"
    },
    {
      "inputs": [],
      "name": "feePercent",
      "outputs": [
        {
          "internalType": "uint256",
          "name": "",
          "type": "uint256"
        }
      ],
      "stateMutability": "view",
      "type": "function"
    },
    {
      "inputs": [
        {
          "internalType": "uint256",
          "name": "_itemId",
          "type": "uint256"
        },
        {
          "internalType": "address",
          "name": "_buyer",
          "type": "address"
        }
      ],
      "name": "getPurchaseInfo",
      "outputs": [
        {
          "internalType": "uint256",
          "name": "purchaseTime",
          "type": "uint256"
        },
        {
          "internalType": "uint256",
          "name": "accessDuration",
          "type": "uint256"
        }
      ],
      "stateMutability": "view",
      "type": "function"
    },
    {
      "inputs": [
        {
          "internalType": "uint256",
          "name": "_itemId",
          "type": "uint256"
        }
      ],
      "name": "getTotalPrice",
      "outputs": [
        {
          "internalType": "uint256",
          "name": "",
          "type": "uint256"
        }
      ],
      "stateMutability": "view",
      "type": "function"
    },
    {
      "inputs": [
        {
          "internalType": "uint256",
          "name": "_itemId",
          "type": "uint256"
        },
        {
          "internalType": "address",
          "name": "_user",
          "type": "address"
        }
      ],
      "name": "hasAccess",
      "outputs": [
        {
          "internalType": "bool",
          "name": "",
          "type": "bool"
        }
      ],
      "stateMutability": "view",
      "type": "function"
    },
    {
      "inputs": [],
      "name": "itemCount",
      "outputs": [
        {
          "internalType": "uint256",
          "name": "",
          "type": "uint256"
        }
      ],
      "stateMutability": "view",
      "type": "function"
    },
    {
      "inputs": [
        {
          "internalType": "uint256",
          "name": "",
          "type": "uint256"
        }
      ],
      "name": "items",
      "outputs": [
        {
          "internalType": "uint256",
          "name": "itemId",
          "type": "uint256"
        },
        {
          "internalType": "contract IERC721",
          "name": "nft",
          "type": "address"
        },
        {
          "internalType": "uint256",
          "name": "tokenId",
          "type": "uint256"
        },
        {
          "internalType": "uint256",
          "name": "price",
          "type": "uint256"
        },
        {
          "internalType": "address payable",
          "name": "seller",
          "type": "address"
        },
        {
          "internalType": "uint256",
          "name": "accessDuration",
          "type": "uint256"
        },
        {
          "internalType": "uint256",
          "name": "dynamicPrice",
          "type": "uint256"
        },
        {
          "internalType": "uint256",
          "name": "_originalPurchasePrice",
          "type": "uint256"
        }
      ],
      "stateMutability": "view",
      "type": "function"
    },
    {
      "inputs": [
        {
          "internalType": "contract IERC721",
          "name": "_nft",
          "type": "address"
        },
        {
          "internalType": "uint256",
          "name": "_tokenId",
          "type": "uint256"
        },
        {
          "internalType": "uint256",
          "name": "_price",
          "type": "uint256"
        },
        {
          "internalType": "uint256",
          "name": "_accessDuration",
          "type": "uint256"
        }
      ],
      "name": "makeItem",
      "outputs": [],
      "stateMutability": "nonpayable",
      "type": "function"
    },
    {
      "inputs": [],
      "name": "owner",
      "outputs": [
        {
          "internalType": "address",
          "name": "",
          "type": "address"
        }
      ],
      "stateMutability": "view",
      "type": "function"
    },
    {
      "inputs": [
        {
          "internalType": "uint256",
          "name": "_itemId",
          "type": "uint256"
        }
      ],
      "name": "purchaseItem",
      "outputs": [],
      "stateMutability": "payable",
      "type": "function"
    },
    {
      "inputs": [
        {
          "internalType": "uint256",
          "name": "_itemId",
          "type": "uint256"
        },
        {
          "internalType": "uint256",
          "name": "_renewalPrice",
          "type": "uint256"
        }
      ],
      "name": "renewAccess",
      "outputs": [],
      "stateMutability": "payable",
      "type": "function"
    },
    {
      "inputs": [],
      "name": "renounceOwnership",
      "outputs": [],
      "stateMutability": "nonpayable",
      "type": "function"
    },
    {
      "inputs": [
        {
          "internalType": "address payable",
          "name": "_newFeeAccount",
          "type": "address"
        }
      ],
      "name": "setFeeAccount",
      "outputs": [],
      "stateMutability": "nonpayable",
      "type": "function"
    },
    {
      "inputs": [
        {
          "internalType": "uint256",
          "name": "_newFeePercent",
          "type": "uint256"
        }
      ],
      "name": "setFeePercent",
      "outputs": [],
      "stateMutability": "nonpayable",
      "type": "function"
    },
    {
      "inputs": [],
      "name": "swarMusicAccount",
      "outputs": [
        {
          "internalType": "address payable",
          "name": "",
          "type": "address"
        }
      ],
      "stateMutability": "view",
      "type": "function"
    },
    {
      "inputs": [
        {
          "internalType": "address",
          "name": "newOwner",
          "type": "address"
        }
      ],
      "name": "transferOwnership",
      "outputs": [],
      "stateMutability": "nonpayable",
      "type": "function"
    },
    {
      "inputs": [
        {
          "internalType": "uint256",
          "name": "amount",
          "type": "uint256"
        }
      ],
      "name": "withdrawRoyalties",
      "outputs": [],
      "stateMutability": "nonpayable",
      "type": "function"
    },
    {
      "stateMutability": "payable",
      "type": "receive"
    }
  ],
  "bytecode": "0x60806040523480156200001157600080fd5b50604051620025d6380380620025d6833981810160405281019062000037919062000200565b60016000819055506200005f620000536200010460201b60201c565b6200010c60201b60201c565b7384e5e368522f4e35a933c51a4f7fa801344f6f9a600260006101000a81548173ffffffffffffffffffffffffffffffffffffffff021916908373ffffffffffffffffffffffffffffffffffffffff16021790555080600560006101000a81548173ffffffffffffffffffffffffffffffffffffffff021916908373ffffffffffffffffffffffffffffffffffffffff160217905550816003819055505050620002b3565b600033905090565b6000600160009054906101000a900473ffffffffffffffffffffffffffffffffffffffff16905081600160006101000a81548173ffffffffffffffffffffffffffffffffffffffff021916908373ffffffffffffffffffffffffffffffffffffffff1602179055508173ffffffffffffffffffffffffffffffffffffffff168173ffffffffffffffffffffffffffffffffffffffff167f8be0079c531659141344cd1fd0a4f28419497f9722a3daafe3b4186f6b6457e060405160405180910390a35050565b600081519050620001e3816200027f565b92915050565b600081519050620001fa8162000299565b92915050565b600080604083850312156200021457600080fd5b60006200022485828601620001e9565b92505060206200023785828601620001d2565b9150509250929050565b60006200024e8262000255565b9050919050565b600073ffffffffffffffffffffffffffffffffffffffff82169050919050565b6000819050919050565b6200028a8162000241565b81146200029657600080fd5b50565b620002a48162000275565b8114620002b057600080fd5b50565b61231380620002c36000396000f3fe60806040526004361061010d5760003560e01c80638da5cb5b11610095578063ced1419811610064578063ced141981461037c578063d38ea5bf146103b9578063de1b60ab146103d5578063f2fde38b146103f1578063f7e506941461041a57610114565b80638da5cb5b14610293578063bfb231d2146102be578063c75d7b3a14610302578063ca7dd3751461033f57610114565b8063696aae08116100dc578063696aae08146101d45780636bfb0d01146101fd578063715018a6146102285780637ce3489b1461023f5780637fd6f15c1461026857610114565b80631a01e315146101195780634b023cf8146101575780635daa02ed1461018057806365e17c9d146101a957610114565b3661011457005b600080fd5b34801561012557600080fd5b50610140600480360381019061013b9190611800565b610445565b60405161014e929190611d40565b60405180910390f35b34801561016357600080fd5b5061017e6004803603810190610179919061174b565b6104b2565b005b34801561018c57600080fd5b506101a760048036038101906101a291906117d7565b6104fe565b005b3480156101b557600080fd5b506101be61072d565b6040516101cb9190611aba565b60405180910390f35b3480156101e057600080fd5b506101fb60048036038101906101f69190611774565b610753565b005b34801561020957600080fd5b506102126109a7565b60405161021f9190611ca7565b60405180910390f35b34801561023457600080fd5b5061023d6109ad565b005b34801561024b57600080fd5b50610266600480360381019061026191906117d7565b6109c1565b005b34801561027457600080fd5b5061027d6109d3565b60405161028a9190611ca7565b60405180910390f35b34801561029f57600080fd5b506102a86109d9565b6040516102b59190611a9f565b60405180910390f35b3480156102ca57600080fd5b506102e560048036038101906102e091906117d7565b610a03565b6040516102f9989796959493929190611cc2565b60405180910390f35b34801561030e57600080fd5b5061032960048036038101906103249190611722565b610a8b565b6040516103369190611ca7565b60405180910390f35b34801561034b57600080fd5b50610366600480360381019061036191906117d7565b610aa3565b6040516103739190611ca7565b60405180910390f35b34801561038857600080fd5b506103a3600480360381019061039e9190611800565b610af6565b6040516103b09190611b0c565b60405180910390f35b6103d360048036038101906103ce91906117d7565b610b71565b005b6103ef60048036038101906103ea919061183c565b611049565b005b3480156103fd57600080fd5b5061041860048036038101906104139190611722565b611452565b005b34801561042657600080fd5b5061042f6114d6565b60405161043c9190611aba565b60405180910390f35b60008060006006600086815260200190815260200160002090508060080160008573ffffffffffffffffffffffffffffffffffffffff1673ffffffffffffffffffffffffffffffffffffffff16815260200190815260200160002054925080600501549150509250929050565b6104ba6114fc565b80600260006101000a81548173ffffffffffffffffffffffffffffffffffffffff021916908373ffffffffffffffffffffffffffffffffffffffff16021790555050565b61050661157a565b60008111610549576040517f08c379a000000000000000000000000000000000000000000000000000000000815260040161054090611c67565b60405180910390fd5b6000600760003373ffffffffffffffffffffffffffffffffffffffff1673ffffffffffffffffffffffffffffffffffffffff16815260200190815260200160002054905081600760003373ffffffffffffffffffffffffffffffffffffffff1673ffffffffffffffffffffffffffffffffffffffff16815260200190815260200160002060008282546105dc9190611dbc565b9250508190555081471015610626576040517f08c379a000000000000000000000000000000000000000000000000000000000815260040161061d90611c47565b60405180910390fd5b60003373ffffffffffffffffffffffffffffffffffffffff168360405161064c90611a8a565b60006040518083038185875af1925050503d8060008114610689576040519150601f19603f3d011682016040523d82523d6000602084013e61068e565b606091505b50509050806106d2576040517f08c379a00000000000000000000000000000000000000000000000000000000081526004016106c990611b67565b60405180910390fd5b3373ffffffffffffffffffffffffffffffffffffffff167f312b70e5726648ad7ab64374bb491934c2732cfb4f8c285ea2c1bbe4fa07f3db846040516107189190611ca7565b60405180910390a2505061072a6115ca565b50565b600260009054906101000a900473ffffffffffffffffffffffffffffffffffffffff1681565b61075b61157a565b6000821161079e576040517f08c379a000000000000000000000000000000000000000000000000000000000815260040161079590611b27565b60405180910390fd5b600081116107e1576040517f08c379a00000000000000000000000000000000000000000000000000000000081526004016107d890611b87565b60405180910390fd5b600460008154809291906107f490611f2d565b91905055508373ffffffffffffffffffffffffffffffffffffffff166323b872dd3330866040518463ffffffff1660e01b815260040161083693929190611ad5565b600060405180830381600087803b15801561085057600080fd5b505af1158015610864573d6000803e3d6000fd5b50505050600060066000600454815260200190815260200160002090506004548160000181905550848160010160006101000a81548173ffffffffffffffffffffffffffffffffffffffff021916908373ffffffffffffffffffffffffffffffffffffffff160217905550838160020181905550828160030181905550338160040160006101000a81548173ffffffffffffffffffffffffffffffffffffffff021916908373ffffffffffffffffffffffffffffffffffffffff1602179055508181600501819055503373ffffffffffffffffffffffffffffffffffffffff168573ffffffffffffffffffffffffffffffffffffffff167f655a0cf9c8db81512be9a76dc1c5ae5380b8816ce6ad659cd61b715e2999d59a600454878760405161099093929190611d69565b60405180910390a3506109a16115ca565b50505050565b60045481565b6109b56114fc565b6109bf60006115d4565b565b6109c96114fc565b8060038190555050565b60035481565b6000600160009054906101000a900473ffffffffffffffffffffffffffffffffffffffff16905090565b60066020528060005260406000206000915090508060000154908060010160009054906101000a900473ffffffffffffffffffffffffffffffffffffffff16908060020154908060030154908060040160009054906101000a900473ffffffffffffffffffffffffffffffffffffffff16908060050154908060060154908060070154905088565b60076020528060005260406000206000915090505481565b6000610aef6064610ae16003546064610abc9190611dbc565b600660008781526020019081526020016000206003015461169a90919063ffffffff16565b6116b090919063ffffffff16565b9050919050565b60008060066000858152602001908152602001600020905060008160080160008573ffffffffffffffffffffffffffffffffffffffff1673ffffffffffffffffffffffffffffffffffffffff168152602001908152602001600020549050816005015481610b649190611dbc565b4211159250505092915050565b610b7961157a565b60006006600083815260200190815260200160002090508060030154341015610bd7576040517f08c379a0000000000000000000000000000000000000000000000000000000008152600401610bce90611be7565b60405180910390fd5b6000610c006064610bf260503461169a90919063ffffffff16565b6116b090919063ffffffff16565b90506000610c2b6064610c1d60143461169a90919063ffffffff16565b6116b090919063ffffffff16565b905081600760008560040160009054906101000a900473ffffffffffffffffffffffffffffffffffffffff1673ffffffffffffffffffffffffffffffffffffffff1673ffffffffffffffffffffffffffffffffffffffff1681526020019081526020016000206000828254610ca09190611dbc565b9250508190555060008360040160009054906101000a900473ffffffffffffffffffffffffffffffffffffffff1673ffffffffffffffffffffffffffffffffffffffff1683604051610cf190611a8a565b60006040518083038185875af1925050503d8060008114610d2e576040519150601f19603f3d011682016040523d82523d6000602084013e610d33565b606091505b5050905080610d77576040517f08c379a0000000000000000000000000000000000000000000000000000000008152600401610d6e90611bc7565b60405180910390fd5b8360040160009054906101000a900473ffffffffffffffffffffffffffffffffffffffff1673ffffffffffffffffffffffffffffffffffffffff167fcb4a9094da4df77fb2c0dbaa5047660b1237e61d82a02176c1be74ca757f253184604051610de19190611ca7565b60405180910390a26000600260009054906101000a900473ffffffffffffffffffffffffffffffffffffffff1673ffffffffffffffffffffffffffffffffffffffff1683604051610e3190611a8a565b60006040518083038185875af1925050503d8060008114610e6e576040519150601f19603f3d011682016040523d82523d6000602084013e610e73565b606091505b5050905080610eb7576040517f08c379a0000000000000000000000000000000000000000000000000000000008152600401610eae90611ba7565b60405180910390fd5b600260009054906101000a900473ffffffffffffffffffffffffffffffffffffffff1673ffffffffffffffffffffffffffffffffffffffff167f34e8a84e537ed93d93ddf39a78816dcbc74df8397c635838b8cc973d4fa943f884604051610f1f9190611ca7565b60405180910390a2428560080160003373ffffffffffffffffffffffffffffffffffffffff1673ffffffffffffffffffffffffffffffffffffffff168152602001908152602001600020819055503373ffffffffffffffffffffffffffffffffffffffff168560040160009054906101000a900473ffffffffffffffffffffffffffffffffffffffff1673ffffffffffffffffffffffffffffffffffffffff168660010160009054906101000a900473ffffffffffffffffffffffffffffffffffffffff1673ffffffffffffffffffffffffffffffffffffffff167f8b4c9c8a607d67b321582dd8461041b1dc2ceeca70c8b7f37f8e02095cf2e76d8989600201543460405161103193929190611d69565b60405180910390a450505050506110466115ca565b50565b61105161157a565b6000600660008481526020019081526020016000209050813410156110ab576040517f08c379a00000000000000000000000000000000000000000000000000000000081526004016110a290611c27565b60405180910390fd5b428160080160003373ffffffffffffffffffffffffffffffffffffffff1673ffffffffffffffffffffffffffffffffffffffff16815260200190815260200160002081905550600061111a606461110c60508661169a90919063ffffffff16565b6116b090919063ffffffff16565b90506000611145606461113760148761169a90919063ffffffff16565b6116b090919063ffffffff16565b905081600760008560040160009054906101000a900473ffffffffffffffffffffffffffffffffffffffff1673ffffffffffffffffffffffffffffffffffffffff1673ffffffffffffffffffffffffffffffffffffffff16815260200190815260200160002060008282546111ba9190611dbc565b9250508190555060008360040160009054906101000a900473ffffffffffffffffffffffffffffffffffffffff1673ffffffffffffffffffffffffffffffffffffffff168360405161120b90611a8a565b60006040518083038185875af1925050503d8060008114611248576040519150601f19603f3d011682016040523d82523d6000602084013e61124d565b606091505b5050905080611291576040517f08c379a000000000000000000000000000000000000000000000000000000000815260040161128890611bc7565b60405180910390fd5b8360040160009054906101000a900473ffffffffffffffffffffffffffffffffffffffff1673ffffffffffffffffffffffffffffffffffffffff167fcb4a9094da4df77fb2c0dbaa5047660b1237e61d82a02176c1be74ca757f2531846040516112fb9190611ca7565b60405180910390a26000600260009054906101000a900473ffffffffffffffffffffffffffffffffffffffff1673ffffffffffffffffffffffffffffffffffffffff168360405161134b90611a8a565b60006040518083038185875af1925050503d8060008114611388576040519150601f19603f3d011682016040523d82523d6000602084013e61138d565b606091505b50509050806113d1576040517f08c379a00000000000000000000000000000000000000000000000000000000081526004016113c890611ba7565b60405180910390fd5b600260009054906101000a900473ffffffffffffffffffffffffffffffffffffffff1673ffffffffffffffffffffffffffffffffffffffff167f34e8a84e537ed93d93ddf39a78816dcbc74df8397c635838b8cc973d4fa943f8846040516114399190611ca7565b60405180910390a2505050505061144e6115ca565b5050565b61145a6114fc565b600073ffffffffffffffffffffffffffffffffffffffff168173ffffffffffffffffffffffffffffffffffffffff1614156114ca576040517f08c379a00000000000000000000000000000000000000000000000000000000081526004016114c190611b47565b60405180910390fd5b6114d3816115d4565b50565b600560009054906101000a900473ffffffffffffffffffffffffffffffffffffffff1681565b6115046116c6565b73ffffffffffffffffffffffffffffffffffffffff166115226109d9565b73ffffffffffffffffffffffffffffffffffffffff1614611578576040517f08c379a000000000000000000000000000000000000000000000000000000000815260040161156f90611c07565b60405180910390fd5b565b600260005414156115c0576040517f08c379a00000000000000000000000000000000000000000000000000000000081526004016115b790611c87565b60405180910390fd5b6002600081905550565b6001600081905550565b6000600160009054906101000a900473ffffffffffffffffffffffffffffffffffffffff16905081600160006101000a81548173ffffffffffffffffffffffffffffffffffffffff021916908373ffffffffffffffffffffffffffffffffffffffff1602179055508173ffffffffffffffffffffffffffffffffffffffff168173ffffffffffffffffffffffffffffffffffffffff167f8be0079c531659141344cd1fd0a4f28419497f9722a3daafe3b4186f6b6457e060405160405180910390a35050565b600081836116a89190611e43565b905092915050565b600081836116be9190611e12565b905092915050565b600033905090565b6000813590506116dd81612281565b92915050565b6000813590506116f281612298565b92915050565b600081359050611707816122af565b92915050565b60008135905061171c816122c6565b92915050565b60006020828403121561173457600080fd5b6000611742848285016116ce565b91505092915050565b60006020828403121561175d57600080fd5b600061176b848285016116e3565b91505092915050565b6000806000806080858703121561178a57600080fd5b6000611798878288016116f8565b94505060206117a98782880161170d565b93505060406117ba8782880161170d565b92505060606117cb8782880161170d565b91505092959194509250565b6000602082840312156117e957600080fd5b60006117f78482850161170d565b91505092915050565b6000806040838503121561181357600080fd5b60006118218582860161170d565b9250506020611832858286016116ce565b9150509250929050565b6000806040838503121561184f57600080fd5b600061185d8582860161170d565b925050602061186e8582860161170d565b9150509250929050565b61188181611eaf565b82525050565b61189081611e9d565b82525050565b61189f81611ec1565b82525050565b6118ae81611f09565b82525050565b60006118c1601f83611dab565b91506118cc82611fd4565b602082019050919050565b60006118e4602683611dab565b91506118ef82611ffd565b604082019050919050565b6000611907600f83611dab565b91506119128261204c565b602082019050919050565b600061192a602983611dab565b915061193582612075565b604082019050919050565b600061194d601283611dab565b9150611958826120c4565b602082019050919050565b6000611970601583611dab565b915061197b826120ed565b602082019050919050565b6000611993602483611dab565b915061199e82612116565b604082019050919050565b60006119b6602083611dab565b91506119c182612165565b602082019050919050565b60006119d9600083611da0565b91506119e48261218e565b600082019050919050565b60006119fc602083611dab565b9150611a0782612191565b602082019050919050565b6000611a1f602183611dab565b9150611a2a826121ba565b604082019050919050565b6000611a42602b83611dab565b9150611a4d82612209565b604082019050919050565b6000611a65601f83611dab565b9150611a7082612258565b602082019050919050565b611a8481611eff565b82525050565b6000611a95826119cc565b9150819050919050565b6000602082019050611ab46000830184611887565b92915050565b6000602082019050611acf6000830184611878565b92915050565b6000606082019050611aea6000830186611887565b611af76020830185611887565b611b046040830184611a7b565b949350505050565b6000602082019050611b216000830184611896565b92915050565b60006020820190508181036000830152611b40816118b4565b9050919050565b60006020820190508181036000830152611b60816118d7565b9050919050565b60006020820190508181036000830152611b80816118fa565b9050919050565b60006020820190508181036000830152611ba08161191d565b9050919050565b60006020820190508181036000830152611bc081611940565b9050919050565b60006020820190508181036000830152611be081611963565b9050919050565b60006020820190508181036000830152611c0081611986565b9050919050565b60006020820190508181036000830152611c20816119a9565b9050919050565b60006020820190508181036000830152611c40816119ef565b9050919050565b60006020820190508181036000830152611c6081611a12565b9050919050565b60006020820190508181036000830152611c8081611a35565b9050919050565b60006020820190508181036000830152611ca081611a58565b9050919050565b6000602082019050611cbc6000830184611a7b565b92915050565b600061010082019050611cd8600083018b611a7b565b611ce5602083018a6118a5565b611cf26040830189611a7b565b611cff6060830188611a7b565b611d0c6080830187611878565b611d1960a0830186611a7b565b611d2660c0830185611a7b565b611d3360e0830184611a7b565b9998505050505050505050565b6000604082019050611d556000830185611a7b565b611d626020830184611a7b565b9392505050565b6000606082019050611d7e6000830186611a7b565b611d8b6020830185611a7b565b611d986040830184611a7b565b949350505050565b600081905092915050565b600082825260208201905092915050565b6000611dc782611eff565b9150611dd283611eff565b9250827fffffffffffffffffffffffffffffffffffffffffffffffffffffffffffffffff03821115611e0757611e06611f76565b5b828201905092915050565b6000611e1d82611eff565b9150611e2883611eff565b925082611e3857611e37611fa5565b5b828204905092915050565b6000611e4e82611eff565b9150611e5983611eff565b9250817fffffffffffffffffffffffffffffffffffffffffffffffffffffffffffffffff0483118215151615611e9257611e91611f76565b5b828202905092915050565b6000611ea882611edf565b9050919050565b6000611eba82611edf565b9050919050565b60008115159050919050565b6000611ed882611e9d565b9050919050565b600073ffffffffffffffffffffffffffffffffffffffff82169050919050565b6000819050919050565b6000611f1482611f1b565b9050919050565b6000611f2682611edf565b9050919050565b6000611f3882611eff565b91507fffffffffffffffffffffffffffffffffffffffffffffffffffffffffffffffff821415611f6b57611f6a611f76565b5b600182019050919050565b7f4e487b7100000000000000000000000000000000000000000000000000000000600052601160045260246000fd5b7f4e487b7100000000000000000000000000000000000000000000000000000000600052601260045260246000fd5b7f5072696365206d7573742062652067726561746572207468616e207a65726f00600082015250565b7f4f776e61626c653a206e6577206f776e657220697320746865207a65726f206160008201527f6464726573730000000000000000000000000000000000000000000000000000602082015250565b7f5472616e73666572206661696c65640000000000000000000000000000000000600082015250565b7f416363657373206475726174696f6e206d75737420626520677265617465722060008201527f7468616e207a65726f0000000000000000000000000000000000000000000000602082015250565b7f466565207061796d656e74206661696c65640000000000000000000000000000600082015250565b7f53656c6c6572207061796d656e74206661696c65640000000000000000000000600082015250565b7f4e6f7420656e6f75676820657468657220746f20636f766572206974656d207060008201527f7269636500000000000000000000000000000000000000000000000000000000602082015250565b7f4f776e61626c653a2063616c6c6572206973206e6f7420746865206f776e6572600082015250565b50565b7f4e6f7420656e6f75676820657468657220746f2072656e657720616363657373600082015250565b7f436f6e74726163742068617320696e73756666696369656e742062616c616e6360008201527f6500000000000000000000000000000000000000000000000000000000000000602082015250565b7f5769746864726177616c20616d6f756e74206d7573742062652067726561746560008201527f72207468616e207a65726f000000000000000000000000000000000000000000602082015250565b7f5265656e7472616e637947756172643a207265656e7472616e742063616c6c00600082015250565b61228a81611e9d565b811461229557600080fd5b50565b6122a181611eaf565b81146122ac57600080fd5b50565b6122b881611ecd565b81146122c357600080fd5b50565b6122cf81611eff565b81146122da57600080fd5b5056fea26469706673582212208e01be0762c3715147dbbd1c75c4b0a236d0fb5d6326521a4ca20f15aa71ed4264736f6c63430008040033",
  "linkReferences": {},
  "deployedLinkReferences": {}
}