{
  "_format": "hh-sol-artifact-1",
  "contractName": "NFT",
  "sourceName": "src/backend/contracts/NFT.sol",
  "abi": [
    {
      "inputs": [],
      "stateMutability": "nonpayable",
      "type": "constructor"
    },
    {
      "anonymous": false,
      "inputs": [
        {
          "indexed": true,
          "internalType": "address",
          "name": "owner",
          "type": "address"
        },
        {
          "indexed": true,
          "internalType": "address",
          "name": "approved",
          "type": "address"
        },
        {
          "indexed": true,
          "internalType": "uint256",
          "name": "tokenId",
          "type": "uint256"
        }
      ],
      "name": "Approval",
      "type": "event"
    },
    {
      "anonymous": false,
      "inputs": [
        {
          "indexed": true,
          "internalType": "address",
          "name": "owner",
          "type": "address"
        },
        {
          "indexed": true,
          "internalType": "address",
          "name": "operator",
          "type": "address"
        },
        {
          "indexed": false,
          "internalType": "bool",
          "name": "approved",
          "type": "bool"
        }
      ],
      "name": "ApprovalForAll",
      "type": "event"
    },
    {
      "anonymous": false,
      "inputs": [
        {
          "indexed": false,
          "internalType": "uint256",
          "name": "_fromTokenId",
          "type": "uint256"
        },
        {
          "indexed": false,
          "internalType": "uint256",
          "name": "_toTokenId",
          "type": "uint256"
        }
      ],
      "name": "BatchMetadataUpdate",
      "type": "event"
    },
    {
      "anonymous": false,
      "inputs": [
        {
          "indexed": false,
          "internalType": "uint256",
          "name": "_tokenId",
          "type": "uint256"
        }
      ],
      "name": "MetadataUpdate",
      "type": "event"
    },
    {
      "anonymous": false,
      "inputs": [
        {
          "indexed": true,
          "internalType": "address",
          "name": "previousOwner",
          "type": "address"
        },
        {
          "indexed": true,
          "internalType": "address",
          "name": "newOwner",
          "type": "address"
        }
      ],
      "name": "OwnershipTransferred",
      "type": "event"
    },
    {
      "anonymous": false,
      "inputs": [
        {
          "indexed": true,
          "internalType": "address",
          "name": "from",
          "type": "address"
        },
        {
          "indexed": true,
          "internalType": "address",
          "name": "to",
          "type": "address"
        },
        {
          "indexed": true,
          "internalType": "uint256",
          "name": "tokenId",
          "type": "uint256"
        }
      ],
      "name": "Transfer",
      "type": "event"
    },
    {
      "inputs": [
        {
          "internalType": "address",
          "name": "to",
          "type": "address"
        },
        {
          "internalType": "uint256",
          "name": "tokenId",
          "type": "uint256"
        }
      ],
      "name": "approve",
      "outputs": [],
      "stateMutability": "nonpayable",
      "type": "function"
    },
    {
      "inputs": [
        {
          "internalType": "address",
          "name": "owner",
          "type": "address"
        }
      ],
      "name": "balanceOf",
      "outputs": [
        {
          "internalType": "uint256",
          "name": "",
          "type": "uint256"
        }
      ],
      "stateMutability": "view",
      "type": "function"
    },
    {
      "inputs": [
        {
          "internalType": "uint256",
          "name": "tokenId",
          "type": "uint256"
        }
      ],
      "name": "getApproved",
      "outputs": [
        {
          "internalType": "address",
          "name": "",
          "type": "address"
        }
      ],
      "stateMutability": "view",
      "type": "function"
    },
    {
      "inputs": [
        {
          "internalType": "address",
          "name": "owner",
          "type": "address"
        },
        {
          "internalType": "address",
          "name": "operator",
          "type": "address"
        }
      ],
      "name": "isApprovedForAll",
      "outputs": [
        {
          "internalType": "bool",
          "name": "",
          "type": "bool"
        }
      ],
      "stateMutability": "view",
      "type": "function"
    },
    {
      "inputs": [
        {
          "internalType": "string",
          "name": "_tokenURI",
          "type": "string"
        }
      ],
      "name": "mint",
      "outputs": [
        {
          "internalType": "uint256",
          "name": "",
          "type": "uint256"
        }
      ],
      "stateMutability": "nonpayable",
      "type": "function"
    },
    {
      "inputs": [],
      "name": "name",
      "outputs": [
        {
          "internalType": "string",
          "name": "",
          "type": "string"
        }
      ],
      "stateMutability": "view",
      "type": "function"
    },
    {
      "inputs": [],
      "name": "owner",
      "outputs": [
        {
          "internalType": "address",
          "name": "",
          "type": "address"
        }
      ],
      "stateMutability": "view",
      "type": "function"
    },
    {
      "inputs": [
        {
          "internalType": "uint256",
          "name": "tokenId",
          "type": "uint256"
        }
      ],
      "name": "ownerOf",
      "outputs": [
        {
          "internalType": "address",
          "name": "",
          "type": "address"
        }
      ],
      "stateMutability": "view",
      "type": "function"
    },
    {
      "inputs": [],
      "name": "renounceOwnership",
      "outputs": [],
      "stateMutability": "nonpayable",
      "type": "function"
    },
    {
      "inputs": [
        {
          "internalType": "address",
          "name": "from",
          "type": "address"
        },
        {
          "internalType": "address",
          "name": "to",
          "type": "address"
        },
        {
          "internalType": "uint256",
          "name": "tokenId",
          "type": "uint256"
        }
      ],
      "name": "safeTransferFrom",
      "outputs": [],
      "stateMutability": "nonpayable",
      "type": "function"
    },
    {
      "inputs": [
        {
          "internalType": "address",
          "name": "from",
          "type": "address"
        },
        {
          "internalType": "address",
          "name": "to",
          "type": "address"
        },
        {
          "internalType": "uint256",
          "name": "tokenId",
          "type": "uint256"
        },
        {
          "internalType": "bytes",
          "name": "data",
          "type": "bytes"
        }
      ],
      "name": "safeTransferFrom",
      "outputs": [],
      "stateMutability": "nonpayable",
      "type": "function"
    },
    {
      "inputs": [
        {
          "internalType": "address",
          "name": "operator",
          "type": "address"
        },
        {
          "internalType": "bool",
          "name": "approved",
          "type": "bool"
        }
      ],
      "name": "setApprovalForAll",
      "outputs": [],
      "stateMutability": "nonpayable",
      "type": "function"
    },
    {
      "inputs": [
        {
          "internalType": "bytes4",
          "name": "interfaceId",
          "type": "bytes4"
        }
      ],
      "name": "supportsInterface",
      "outputs": [
        {
          "internalType": "bool",
          "name": "",
          "type": "bool"
        }
      ],
      "stateMutability": "view",
      "type": "function"
    },
    {
      "inputs": [],
      "name": "symbol",
      "outputs": [
        {
          "internalType": "string",
          "name": "",
          "type": "string"
        }
      ],
      "stateMutability": "view",
      "type": "function"
    },
    {
      "inputs": [],
      "name": "tokenCount",
      "outputs": [
        {
          "internalType": "uint256",
          "name": "",
          "type": "uint256"
        }
      ],
      "stateMutability": "view",
      "type": "function"
    },
    {
      "inputs": [
        {
          "internalType": "uint256",
          "name": "tokenId",
          "type": "uint256"
        }
      ],
      "name": "tokenURI",
      "outputs": [
        {
          "internalType": "string",
          "name": "",
          "type": "string"
        }
      ],
      "stateMutability": "view",
      "type": "function"
    },
    {
      "inputs": [
        {
          "internalType": "address",
          "name": "from",
          "type": "address"
        },
        {
          "internalType": "address",
          "name": "to",
          "type": "address"
        },
        {
          "internalType": "uint256",
          "name": "tokenId",
          "type": "uint256"
        }
      ],
      "name": "transferFrom",
      "outputs": [],
      "stateMutability": "nonpayable",
      "type": "function"
    },
    {
      "inputs": [
        {
          "internalType": "address",
          "name": "newOwner",
          "type": "address"
        }
      ],
      "name": "transferOwnership",
      "outputs": [],
      "stateMutability": "nonpayable",
      "type": "function"
    }
  ],
  "bytecode": "0x60806040523480156200001157600080fd5b506040518060400160405280600e81526020017f53776172204d75736963204e46540000000000000000000000000000000000008152506040518060400160405280600781526020017f535741524e465400000000000000000000000000000000000000000000000000815250816000908051906020019062000096929190620001a6565b508060019080519060200190620000af929190620001a6565b505050620000d2620000c6620000d860201b60201c565b620000e060201b60201c565b620002bb565b600033905090565b6000600760009054906101000a900473ffffffffffffffffffffffffffffffffffffffff16905081600760006101000a81548173ffffffffffffffffffffffffffffffffffffffff021916908373ffffffffffffffffffffffffffffffffffffffff1602179055508173ffffffffffffffffffffffffffffffffffffffff168173ffffffffffffffffffffffffffffffffffffffff167f8be0079c531659141344cd1fd0a4f28419497f9722a3daafe3b4186f6b6457e060405160405180910390a35050565b828054620001b49062000256565b90600052602060002090601f016020900481019282620001d8576000855562000224565b82601f10620001f357805160ff191683800117855562000224565b8280016001018555821562000224579182015b828111156200022357825182559160200191906001019062000206565b5b50905062000233919062000237565b5090565b5b808211156200025257600081600090555060010162000238565b5090565b600060028204905060018216806200026f57607f821691505b602082108114156200028657620002856200028c565b5b50919050565b7f4e487b7100000000000000000000000000000000000000000000000000000000600052602260045260246000fd5b612e3a80620002cb6000396000f3fe608060405234801561001057600080fd5b50600436106101165760003560e01c80638da5cb5b116100a2578063b88d4fde11610071578063b88d4fde146102cd578063c87b56dd146102e9578063d85d3d2714610319578063e985e9c514610349578063f2fde38b1461037957610116565b80638da5cb5b1461025757806395d89b41146102755780639f181b5e14610293578063a22cb465146102b157610116565b806323b872dd116100e957806323b872dd146101b557806342842e0e146101d15780636352211e146101ed57806370a082311461021d578063715018a61461024d57610116565b806301ffc9a71461011b57806306fdde031461014b578063081812fc14610169578063095ea7b314610199575b600080fd5b61013560048036038101906101309190612131565b610395565b6040516101429190612532565b60405180910390f35b6101536103f6565b604051610160919061254d565b60405180910390f35b610183600480360381019061017e91906121c4565b610488565b60405161019091906124cb565b60405180910390f35b6101b360048036038101906101ae91906120f5565b6104ce565b005b6101cf60048036038101906101ca9190611fef565b6105e6565b005b6101eb60048036038101906101e69190611fef565b610646565b005b610207600480360381019061020291906121c4565b610666565b60405161021491906124cb565b60405180910390f35b61023760048036038101906102329190611f8a565b6106ed565b604051610244919061272f565b60405180910390f35b6102556107a5565b005b61025f6107b9565b60405161026c91906124cb565b60405180910390f35b61027d6107e3565b60405161028a919061254d565b60405180910390f35b61029b610875565b6040516102a8919061272f565b60405180910390f35b6102cb60048036038101906102c691906120b9565b61087b565b005b6102e760048036038101906102e2919061203e565b610891565b005b61030360048036038101906102fe91906121c4565b6108f3565b604051610310919061254d565b60405180910390f35b610333600480360381019061032e9190612183565b610a06565b604051610340919061272f565b60405180910390f35b610363600480360381019061035e9190611fb3565b610a42565b6040516103709190612532565b60405180910390f35b610393600480360381019061038e9190611f8a565b610ad6565b005b6000634906490660e01b7bffffffffffffffffffffffffffffffffffffffffffffffffffffffff1916827bffffffffffffffffffffffffffffffffffffffffffffffffffffffff191614806103ef57506103ee82610b5a565b5b9050919050565b606060008054610405906128ca565b80601f0160208091040260200160405190810160405280929190818152602001828054610431906128ca565b801561047e5780601f106104535761010080835404028352916020019161047e565b820191906000526020600020905b81548152906001019060200180831161046157829003601f168201915b5050505050905090565b600061049382610c3c565b6004600083815260200190815260200160002060009054906101000a900473ffffffffffffffffffffffffffffffffffffffff169050919050565b60006104d982610666565b90508073ffffffffffffffffffffffffffffffffffffffff168373ffffffffffffffffffffffffffffffffffffffff16141561054a576040517f08c379a0000000000000000000000000000000000000000000000000000000008152600401610541906126ef565b60405180910390fd5b8073ffffffffffffffffffffffffffffffffffffffff16610569610c87565b73ffffffffffffffffffffffffffffffffffffffff161480610598575061059781610592610c87565b610a42565b5b6105d7576040517f08c379a00000000000000000000000000000000000000000000000000000000081526004016105ce9061270f565b60405180910390fd5b6105e18383610c8f565b505050565b6105f76105f1610c87565b82610d48565b610636576040517f08c379a000000000000000000000000000000000000000000000000000000000815260040161062d9061256f565b60405180910390fd5b610641838383610ddd565b505050565b61066183838360405180602001604052806000815250610891565b505050565b600080610672836110d7565b9050600073ffffffffffffffffffffffffffffffffffffffff168173ffffffffffffffffffffffffffffffffffffffff1614156106e4576040517f08c379a00000000000000000000000000000000000000000000000000000000081526004016106db906126cf565b60405180910390fd5b80915050919050565b60008073ffffffffffffffffffffffffffffffffffffffff168273ffffffffffffffffffffffffffffffffffffffff16141561075e576040517f08c379a00000000000000000000000000000000000000000000000000000000081526004016107559061264f565b60405180910390fd5b600360008373ffffffffffffffffffffffffffffffffffffffff1673ffffffffffffffffffffffffffffffffffffffff168152602001908152602001600020549050919050565b6107ad611114565b6107b76000611192565b565b6000600760009054906101000a900473ffffffffffffffffffffffffffffffffffffffff16905090565b6060600180546107f2906128ca565b80601f016020809104026020016040519081016040528092919081815260200182805461081e906128ca565b801561086b5780601f106108405761010080835404028352916020019161086b565b820191906000526020600020905b81548152906001019060200180831161084e57829003601f168201915b5050505050905090565b60085481565b61088d610886610c87565b8383611258565b5050565b6108a261089c610c87565b83610d48565b6108e1576040517f08c379a00000000000000000000000000000000000000000000000000000000081526004016108d89061256f565b60405180910390fd5b6108ed848484846113c5565b50505050565b60606108fe82610c3c565b600060066000848152602001908152602001600020805461091e906128ca565b80601f016020809104026020016040519081016040528092919081815260200182805461094a906128ca565b80156109975780601f1061096c57610100808354040283529160200191610997565b820191906000526020600020905b81548152906001019060200180831161097a57829003601f168201915b5050505050905060006109a8611421565b90506000815114156109be578192505050610a01565b6000825111156109f35780826040516020016109db9291906124a7565b60405160208183030381529060405292505050610a01565b6109fc84611438565b925050505b919050565b600060086000815480929190610a1b9061292d565b9190505550610a2c336008546114a0565b610a38600854836114be565b6008549050919050565b6000600560008473ffffffffffffffffffffffffffffffffffffffff1673ffffffffffffffffffffffffffffffffffffffff16815260200190815260200160002060008373ffffffffffffffffffffffffffffffffffffffff1673ffffffffffffffffffffffffffffffffffffffff16815260200190815260200160002060009054906101000a900460ff16905092915050565b610ade611114565b600073ffffffffffffffffffffffffffffffffffffffff168173ffffffffffffffffffffffffffffffffffffffff161415610b4e576040517f08c379a0000000000000000000000000000000000000000000000000000000008152600401610b45906125af565b60405180910390fd5b610b5781611192565b50565b60007f80ac58cd000000000000000000000000000000000000000000000000000000007bffffffffffffffffffffffffffffffffffffffffffffffffffffffff1916827bffffffffffffffffffffffffffffffffffffffffffffffffffffffff19161480610c2557507f5b5e139f000000000000000000000000000000000000000000000000000000007bffffffffffffffffffffffffffffffffffffffffffffffffffffffff1916827bffffffffffffffffffffffffffffffffffffffffffffffffffffffff1916145b80610c355750610c3482611569565b5b9050919050565b610c45816115d3565b610c84576040517f08c379a0000000000000000000000000000000000000000000000000000000008152600401610c7b906126cf565b60405180910390fd5b50565b600033905090565b816004600083815260200190815260200160002060006101000a81548173ffffffffffffffffffffffffffffffffffffffff021916908373ffffffffffffffffffffffffffffffffffffffff160217905550808273ffffffffffffffffffffffffffffffffffffffff16610d0283610666565b73ffffffffffffffffffffffffffffffffffffffff167f8c5be1e5ebec7d5bd14f71427d1e84f3dd0314c0f7b2291e5b200ac8c7c3b92560405160405180910390a45050565b600080610d5483610666565b90508073ffffffffffffffffffffffffffffffffffffffff168473ffffffffffffffffffffffffffffffffffffffff161480610d965750610d958185610a42565b5b80610dd457508373ffffffffffffffffffffffffffffffffffffffff16610dbc84610488565b73ffffffffffffffffffffffffffffffffffffffff16145b91505092915050565b8273ffffffffffffffffffffffffffffffffffffffff16610dfd82610666565b73ffffffffffffffffffffffffffffffffffffffff1614610e53576040517f08c379a0000000000000000000000000000000000000000000000000000000008152600401610e4a906125cf565b60405180910390fd5b600073ffffffffffffffffffffffffffffffffffffffff168273ffffffffffffffffffffffffffffffffffffffff161415610ec3576040517f08c379a0000000000000000000000000000000000000000000000000000000008152600401610eba9061260f565b60405180910390fd5b610ed08383836001611614565b8273ffffffffffffffffffffffffffffffffffffffff16610ef082610666565b73ffffffffffffffffffffffffffffffffffffffff1614610f46576040517f08c379a0000000000000000000000000000000000000000000000000000000008152600401610f3d906125cf565b60405180910390fd5b6004600082815260200190815260200160002060006101000a81549073ffffffffffffffffffffffffffffffffffffffff02191690556001600360008573ffffffffffffffffffffffffffffffffffffffff1673ffffffffffffffffffffffffffffffffffffffff168152602001908152602001600020600082825403925050819055506001600360008473ffffffffffffffffffffffffffffffffffffffff1673ffffffffffffffffffffffffffffffffffffffff16815260200190815260200160002060008282540192505081905550816002600083815260200190815260200160002060006101000a81548173ffffffffffffffffffffffffffffffffffffffff021916908373ffffffffffffffffffffffffffffffffffffffff160217905550808273ffffffffffffffffffffffffffffffffffffffff168473ffffffffffffffffffffffffffffffffffffffff167fddf252ad1be2c89b69c2b068fc378daa952ba7f163c4a11628f55a4df523b3ef60405160405180910390a46110d2838383600161161a565b505050565b60006002600083815260200190815260200160002060009054906101000a900473ffffffffffffffffffffffffffffffffffffffff169050919050565b61111c610c87565b73ffffffffffffffffffffffffffffffffffffffff1661113a6107b9565b73ffffffffffffffffffffffffffffffffffffffff1614611190576040517f08c379a0000000000000000000000000000000000000000000000000000000008152600401611187906126af565b60405180910390fd5b565b6000600760009054906101000a900473ffffffffffffffffffffffffffffffffffffffff16905081600760006101000a81548173ffffffffffffffffffffffffffffffffffffffff021916908373ffffffffffffffffffffffffffffffffffffffff1602179055508173ffffffffffffffffffffffffffffffffffffffff168173ffffffffffffffffffffffffffffffffffffffff167f8be0079c531659141344cd1fd0a4f28419497f9722a3daafe3b4186f6b6457e060405160405180910390a35050565b8173ffffffffffffffffffffffffffffffffffffffff168373ffffffffffffffffffffffffffffffffffffffff1614156112c7576040517f08c379a00000000000000000000000000000000000000000000000000000000081526004016112be9061262f565b60405180910390fd5b80600560008573ffffffffffffffffffffffffffffffffffffffff1673ffffffffffffffffffffffffffffffffffffffff16815260200190815260200160002060008473ffffffffffffffffffffffffffffffffffffffff1673ffffffffffffffffffffffffffffffffffffffff16815260200190815260200160002060006101000a81548160ff0219169083151502179055508173ffffffffffffffffffffffffffffffffffffffff168373ffffffffffffffffffffffffffffffffffffffff167f17307eab39ab6107e8899845ad3d59bd9653f200f220920489ca2b5937696c31836040516113b89190612532565b60405180910390a3505050565b6113d0848484610ddd565b6113dc84848484611620565b61141b576040517f08c379a00000000000000000000000000000000000000000000000000000000081526004016114129061258f565b60405180910390fd5b50505050565b606060405180602001604052806000815250905090565b606061144382610c3c565b600061144d611421565b9050600081511161146d5760405180602001604052806000815250611498565b80611477846117b7565b6040516020016114889291906124a7565b6040516020818303038152906040525b915050919050565b6114ba8282604051806020016040528060008152506118db565b5050565b6114c7826115d3565b611506576040517f08c379a00000000000000000000000000000000000000000000000000000000081526004016114fd9061266f565b60405180910390fd5b8060066000848152602001908152602001600020908051906020019061152d929190611dae565b507ff8e1a15aba9398e019f0b49df1a4fde98ee17ae345cb5f6b5e2c27f5033e8ce78260405161155d919061272f565b60405180910390a15050565b60007f01ffc9a7000000000000000000000000000000000000000000000000000000007bffffffffffffffffffffffffffffffffffffffffffffffffffffffff1916827bffffffffffffffffffffffffffffffffffffffffffffffffffffffff1916149050919050565b60008073ffffffffffffffffffffffffffffffffffffffff166115f5836110d7565b73ffffffffffffffffffffffffffffffffffffffff1614159050919050565b50505050565b50505050565b60006116418473ffffffffffffffffffffffffffffffffffffffff16611936565b156117aa578373ffffffffffffffffffffffffffffffffffffffff1663150b7a0261166a610c87565b8786866040518563ffffffff1660e01b815260040161168c94939291906124e6565b602060405180830381600087803b1580156116a657600080fd5b505af19250505080156116d757506040513d601f19601f820116820180604052508101906116d4919061215a565b60015b61175a573d8060008114611707576040519150601f19603f3d011682016040523d82523d6000602084013e61170c565b606091505b50600081511415611752576040517f08c379a00000000000000000000000000000000000000000000000000000000081526004016117499061258f565b60405180910390fd5b805181602001fd5b63150b7a0260e01b7bffffffffffffffffffffffffffffffffffffffffffffffffffffffff1916817bffffffffffffffffffffffffffffffffffffffffffffffffffffffff1916149150506117af565b600190505b949350505050565b6060600060016117c684611959565b01905060008167ffffffffffffffff81111561180b577f4e487b7100000000000000000000000000000000000000000000000000000000600052604160045260246000fd5b6040519080825280601f01601f19166020018201604052801561183d5781602001600182028036833780820191505090505b509050600082602001820190505b6001156118d0578080600190039150507f3031323334353637383961626364656600000000000000000000000000000000600a86061a8153600a85816118ba577f4e487b7100000000000000000000000000000000000000000000000000000000600052601260045260246000fd5b04945060008514156118cb576118d0565b61184b565b819350505050919050565b6118e58383611b90565b6118f26000848484611620565b611931576040517f08c379a00000000000000000000000000000000000000000000000000000000081526004016119289061258f565b60405180910390fd5b505050565b6000808273ffffffffffffffffffffffffffffffffffffffff163b119050919050565b600080600090507a184f03e93ff9f4daa797ed6e38ed64bf6a1f01000000000000000083106119dd577a184f03e93ff9f4daa797ed6e38ed64bf6a1f01000000000000000083816119d3577f4e487b7100000000000000000000000000000000000000000000000000000000600052601260045260246000fd5b0492506040810190505b6d04ee2d6d415b85acef81000000008310611a40576d04ee2d6d415b85acef81000000008381611a36577f4e487b7100000000000000000000000000000000000000000000000000000000600052601260045260246000fd5b0492506020810190505b662386f26fc100008310611a9557662386f26fc100008381611a8b577f4e487b7100000000000000000000000000000000000000000000000000000000600052601260045260246000fd5b0492506010810190505b6305f5e1008310611ae4576305f5e1008381611ada577f4e487b7100000000000000000000000000000000000000000000000000000000600052601260045260246000fd5b0492506008810190505b6127108310611b2f576127108381611b25577f4e487b7100000000000000000000000000000000000000000000000000000000600052601260045260246000fd5b0492506004810190505b60648310611b785760648381611b6e577f4e487b7100000000000000000000000000000000000000000000000000000000600052601260045260246000fd5b0492506002810190505b600a8310611b87576001810190505b80915050919050565b600073ffffffffffffffffffffffffffffffffffffffff168273ffffffffffffffffffffffffffffffffffffffff161415611c00576040517f08c379a0000000000000000000000000000000000000000000000000000000008152600401611bf79061268f565b60405180910390fd5b611c09816115d3565b15611c49576040517f08c379a0000000000000000000000000000000000000000000000000000000008152600401611c40906125ef565b60405180910390fd5b611c57600083836001611614565b611c60816115d3565b15611ca0576040517f08c379a0000000000000000000000000000000000000000000000000000000008152600401611c97906125ef565b60405180910390fd5b6001600360008473ffffffffffffffffffffffffffffffffffffffff1673ffffffffffffffffffffffffffffffffffffffff16815260200190815260200160002060008282540192505081905550816002600083815260200190815260200160002060006101000a81548173ffffffffffffffffffffffffffffffffffffffff021916908373ffffffffffffffffffffffffffffffffffffffff160217905550808273ffffffffffffffffffffffffffffffffffffffff16600073ffffffffffffffffffffffffffffffffffffffff167fddf252ad1be2c89b69c2b068fc378daa952ba7f163c4a11628f55a4df523b3ef60405160405180910390a4611daa60008383600161161a565b5050565b828054611dba906128ca565b90600052602060002090601f016020900481019282611ddc5760008555611e23565b82601f10611df557805160ff1916838001178555611e23565b82800160010185558215611e23579182015b82811115611e22578251825591602001919060010190611e07565b5b509050611e309190611e34565b5090565b5b80821115611e4d576000816000905550600101611e35565b5090565b6000611e64611e5f8461276f565b61274a565b905082815260208101848484011115611e7c57600080fd5b611e87848285612888565b509392505050565b6000611ea2611e9d846127a0565b61274a565b905082815260208101848484011115611eba57600080fd5b611ec5848285612888565b509392505050565b600081359050611edc81612da8565b92915050565b600081359050611ef181612dbf565b92915050565b600081359050611f0681612dd6565b92915050565b600081519050611f1b81612dd6565b92915050565b600082601f830112611f3257600080fd5b8135611f42848260208601611e51565b91505092915050565b600082601f830112611f5c57600080fd5b8135611f6c848260208601611e8f565b91505092915050565b600081359050611f8481612ded565b92915050565b600060208284031215611f9c57600080fd5b6000611faa84828501611ecd565b91505092915050565b60008060408385031215611fc657600080fd5b6000611fd485828601611ecd565b9250506020611fe585828601611ecd565b9150509250929050565b60008060006060848603121561200457600080fd5b600061201286828701611ecd565b935050602061202386828701611ecd565b925050604061203486828701611f75565b9150509250925092565b6000806000806080858703121561205457600080fd5b600061206287828801611ecd565b945050602061207387828801611ecd565b935050604061208487828801611f75565b925050606085013567ffffffffffffffff8111156120a157600080fd5b6120ad87828801611f21565b91505092959194509250565b600080604083850312156120cc57600080fd5b60006120da85828601611ecd565b92505060206120eb85828601611ee2565b9150509250929050565b6000806040838503121561210857600080fd5b600061211685828601611ecd565b925050602061212785828601611f75565b9150509250929050565b60006020828403121561214357600080fd5b600061215184828501611ef7565b91505092915050565b60006020828403121561216c57600080fd5b600061217a84828501611f0c565b91505092915050565b60006020828403121561219557600080fd5b600082013567ffffffffffffffff8111156121af57600080fd5b6121bb84828501611f4b565b91505092915050565b6000602082840312156121d657600080fd5b60006121e484828501611f75565b91505092915050565b6121f681612814565b82525050565b61220581612826565b82525050565b6000612216826127d1565b61222081856127e7565b9350612230818560208601612897565b61223981612a03565b840191505092915050565b600061224f826127dc565b61225981856127f8565b9350612269818560208601612897565b61227281612a03565b840191505092915050565b6000612288826127dc565b6122928185612809565b93506122a2818560208601612897565b80840191505092915050565b60006122bb602d836127f8565b91506122c682612a14565b604082019050919050565b60006122de6032836127f8565b91506122e982612a63565b604082019050919050565b60006123016026836127f8565b915061230c82612ab2565b604082019050919050565b60006123246025836127f8565b915061232f82612b01565b604082019050919050565b6000612347601c836127f8565b915061235282612b50565b602082019050919050565b600061236a6024836127f8565b915061237582612b79565b604082019050919050565b600061238d6019836127f8565b915061239882612bc8565b602082019050919050565b60006123b06029836127f8565b91506123bb82612bf1565b604082019050919050565b60006123d3602e836127f8565b91506123de82612c40565b604082019050919050565b60006123f66020836127f8565b915061240182612c8f565b602082019050919050565b60006124196020836127f8565b915061242482612cb8565b602082019050919050565b600061243c6018836127f8565b915061244782612ce1565b602082019050919050565b600061245f6021836127f8565b915061246a82612d0a565b604082019050919050565b6000612482603d836127f8565b915061248d82612d59565b604082019050919050565b6124a18161287e565b82525050565b60006124b3828561227d565b91506124bf828461227d565b91508190509392505050565b60006020820190506124e060008301846121ed565b92915050565b60006080820190506124fb60008301876121ed565b61250860208301866121ed565b6125156040830185612498565b8181036060830152612527818461220b565b905095945050505050565b600060208201905061254760008301846121fc565b92915050565b600060208201905081810360008301526125678184612244565b905092915050565b60006020820190508181036000830152612588816122ae565b9050919050565b600060208201905081810360008301526125a8816122d1565b9050919050565b600060208201905081810360008301526125c8816122f4565b9050919050565b600060208201905081810360008301526125e881612317565b9050919050565b600060208201905081810360008301526126088161233a565b9050919050565b600060208201905081810360008301526126288161235d565b9050919050565b6000602082019050818103600083015261264881612380565b9050919050565b60006020820190508181036000830152612668816123a3565b9050919050565b60006020820190508181036000830152612688816123c6565b9050919050565b600060208201905081810360008301526126a8816123e9565b9050919050565b600060208201905081810360008301526126c88161240c565b9050919050565b600060208201905081810360008301526126e88161242f565b9050919050565b6000602082019050818103600083015261270881612452565b9050919050565b6000602082019050818103600083015261272881612475565b9050919050565b60006020820190506127446000830184612498565b92915050565b6000612754612765565b905061276082826128fc565b919050565b6000604051905090565b600067ffffffffffffffff82111561278a576127896129d4565b5b61279382612a03565b9050602081019050919050565b600067ffffffffffffffff8211156127bb576127ba6129d4565b5b6127c482612a03565b9050602081019050919050565b600081519050919050565b600081519050919050565b600082825260208201905092915050565b600082825260208201905092915050565b600081905092915050565b600061281f8261285e565b9050919050565b60008115159050919050565b60007fffffffff0000000000000000000000000000000000000000000000000000000082169050919050565b600073ffffffffffffffffffffffffffffffffffffffff82169050919050565b6000819050919050565b82818337600083830152505050565b60005b838110156128b557808201518184015260208101905061289a565b838111156128c4576000848401525b50505050565b600060028204905060018216806128e257607f821691505b602082108114156128f6576128f56129a5565b5b50919050565b61290582612a03565b810181811067ffffffffffffffff82111715612924576129236129d4565b5b80604052505050565b60006129388261287e565b91507fffffffffffffffffffffffffffffffffffffffffffffffffffffffffffffffff82141561296b5761296a612976565b5b600182019050919050565b7f4e487b7100000000000000000000000000000000000000000000000000000000600052601160045260246000fd5b7f4e487b7100000000000000000000000000000000000000000000000000000000600052602260045260246000fd5b7f4e487b7100000000000000000000000000000000000000000000000000000000600052604160045260246000fd5b6000601f19601f8301169050919050565b7f4552433732313a2063616c6c6572206973206e6f7420746f6b656e206f776e6560008201527f72206f7220617070726f76656400000000000000000000000000000000000000602082015250565b7f4552433732313a207472616e7366657220746f206e6f6e20455243373231526560008201527f63656976657220696d706c656d656e7465720000000000000000000000000000602082015250565b7f4f776e61626c653a206e6577206f776e657220697320746865207a65726f206160008201527f6464726573730000000000000000000000000000000000000000000000000000602082015250565b7f4552433732313a207472616e736665722066726f6d20696e636f72726563742060008201527f6f776e6572000000000000000000000000000000000000000000000000000000602082015250565b7f4552433732313a20746f6b656e20616c7265616479206d696e74656400000000600082015250565b7f4552433732313a207472616e7366657220746f20746865207a65726f2061646460008201527f7265737300000000000000000000000000000000000000000000000000000000602082015250565b7f4552433732313a20617070726f766520746f2063616c6c657200000000000000600082015250565b7f4552433732313a2061646472657373207a65726f206973206e6f74206120766160008201527f6c6964206f776e65720000000000000000000000000000000000000000000000602082015250565b7f45524337323155524953746f726167653a2055524920736574206f66206e6f6e60008201527f6578697374656e7420746f6b656e000000000000000000000000000000000000602082015250565b7f4552433732313a206d696e7420746f20746865207a65726f2061646472657373600082015250565b7f4f776e61626c653a2063616c6c6572206973206e6f7420746865206f776e6572600082015250565b7f4552433732313a20696e76616c696420746f6b656e2049440000000000000000600082015250565b7f4552433732313a20617070726f76616c20746f2063757272656e74206f776e6560008201527f7200000000000000000000000000000000000000000000000000000000000000602082015250565b7f4552433732313a20617070726f76652063616c6c6572206973206e6f7420746f60008201527f6b656e206f776e6572206f7220617070726f76656420666f7220616c6c000000602082015250565b612db181612814565b8114612dbc57600080fd5b50565b612dc881612826565b8114612dd357600080fd5b50565b612ddf81612832565b8114612dea57600080fd5b50565b612df68161287e565b8114612e0157600080fd5b5056fea26469706673582212202fa1350652312e2b73d0b8c2b55f3733dacf6c21080737e80e5de48764e8706664736f6c63430008040033",
  "linkReferences": {},
  "deployedLinkReferences": {}
}