{
    "contractName": "Marketplace",
    "abi": [
        {
            "inputs": [
                {
                    "internalType": "uint256",
                    "name": "_feePercent",
                    "type": "uint256"
                }
            ],
            "stateMutability": "nonpayable",
            "type": "constructor"
        },
        {
            "anonymous": false,
            "inputs": [
                {
                    "indexed": false,
                    "internalType": "uint256",
                    "name": "itemId",
                    "type": "uint256"
                },
                {
                    "indexed": true,
                    "internalType": "address",
                    "name": "nft",
                    "type": "address"
                },
                {
                    "indexed": false,
                    "internalType": "uint256",
                    "name": "tokenId",
                    "type": "uint256"
                },
                {
                    "indexed": false,
                    "internalType": "uint256",
                    "name": "price",
                    "type": "uint256"
                },
                {
                    "indexed": true,
                    "internalType": "address",
                    "name": "seller",
                    "type": "address"
                },
                {
                    "indexed": true,
                    "internalType": "address",
                    "name": "buyer",
                    "type": "address"
                }
            ],
            "name": "Bought",
            "type": "event"
        },
        {
            "anonymous": false,
            "inputs": [
                {
                    "indexed": true,
                    "internalType": "address",
                    "name": "feeAccount",
                    "type": "address"
                },
                {
                    "indexed": false,
                    "internalType": "uint256",
                    "name": "amount",
                    "type": "uint256"
                }
            ],
            "name": "FeeTransferred",
            "type": "event"
        },
        {
            "anonymous": false,
            "inputs": [
                {
                    "indexed": false,
                    "internalType": "uint256",
                    "name": "itemId",
                    "type": "uint256"
                },
                {
                    "indexed": true,
                    "internalType": "address",
                    "name": "nft",
                    "type": "address"
                },
                {
                    "indexed": false,
                    "internalType": "uint256",
                    "name": "tokenId",
                    "type": "uint256"
                },
                {
                    "indexed": false,
                    "internalType": "uint256",
                    "name": "price",
                    "type": "uint256"
                },
                {
                    "indexed": true,
                    "internalType": "address",
                    "name": "seller",
                    "type": "address"
                }
            ],
            "name": "Offered",
            "type": "event"
        },
        {
            "anonymous": false,
            "inputs": [
                {
                    "indexed": true,
                    "internalType": "address",
                    "name": "previousOwner",
                    "type": "address"
                },
                {
                    "indexed": true,
                    "internalType": "address",
                    "name": "newOwner",
                    "type": "address"
                }
            ],
            "name": "OwnershipTransferred",
            "type": "event"
        },
        {
            "anonymous": false,
            "inputs": [
                {
                    "indexed": true,
                    "internalType": "address",
                    "name": "seller",
                    "type": "address"
                },
                {
                    "indexed": false,
                    "internalType": "uint256",
                    "name": "amount",
                    "type": "uint256"
                }
            ],
            "name": "SellerPaid",
            "type": "event"
        },
        {
            "inputs": [],
            "name": "feeAccount",
            "outputs": [
                {
                    "internalType": "address payable",
                    "name": "",
                    "type": "address"
                }
            ],
            "stateMutability": "view",
            "type": "function"
        },
        {
            "inputs": [],
            "name": "feePercent",
            "outputs": [
                {
                    "internalType": "uint256",
                    "name": "",
                    "type": "uint256"
                }
            ],
            "stateMutability": "view",
            "type": "function"
        },
        {
            "inputs": [
                {
                    "internalType": "uint256",
                    "name": "_itemId",
                    "type": "uint256"
                },
                {
                    "internalType": "address",
                    "name": "_buyer",
                    "type": "address"
                }
            ],
            "name": "getPurchaseInfo",
            "outputs": [
                {
                    "internalType": "uint256",
                    "name": "purchaseTime",
                    "type": "uint256"
                },
                {
                    "internalType": "uint256",
                    "name": "accessDuration",
                    "type": "uint256"
                }
            ],
            "stateMutability": "view",
            "type": "function"
        },
        {
            "inputs": [
                {
                    "internalType": "uint256",
                    "name": "_itemId",
                    "type": "uint256"
                }
            ],
            "name": "getTotalPrice",
            "outputs": [
                {
                    "internalType": "uint256",
                    "name": "",
                    "type": "uint256"
                }
            ],
            "stateMutability": "view",
            "type": "function"
        },
        {
            "inputs": [
                {
                    "internalType": "uint256",
                    "name": "_itemId",
                    "type": "uint256"
                },
                {
                    "internalType": "address",
                    "name": "_user",
                    "type": "address"
                }
            ],
            "name": "hasAccess",
            "outputs": [
                {
                    "internalType": "bool",
                    "name": "",
                    "type": "bool"
                }
            ],
            "stateMutability": "view",
            "type": "function"
        },
        {
            "inputs": [],
            "name": "itemCount",
            "outputs": [
                {
                    "internalType": "uint256",
                    "name": "",
                    "type": "uint256"
                }
            ],
            "stateMutability": "view",
            "type": "function"
        },
        {
            "inputs": [
                {
                    "internalType": "uint256",
                    "name": "",
                    "type": "uint256"
                }
            ],
            "name": "items",
            "outputs": [
                {
                    "internalType": "uint256",
                    "name": "itemId",
                    "type": "uint256"
                },
                {
                    "internalType": "contract IERC721",
                    "name": "nft",
                    "type": "address"
                },
                {
                    "internalType": "uint256",
                    "name": "tokenId",
                    "type": "uint256"
                },
                {
                    "internalType": "uint256",
                    "name": "price",
                    "type": "uint256"
                },
                {
                    "internalType": "address payable",
                    "name": "seller",
                    "type": "address"
                },
                {
                    "internalType": "uint256",
                    "name": "accessDuration",
                    "type": "uint256"
                }
            ],
            "stateMutability": "view",
            "type": "function"
        },
        {
            "inputs": [
                {
                    "internalType": "contract IERC721",
                    "name": "_nft",
                    "type": "address"
                },
                {
                    "internalType": "uint256",
                    "name": "_tokenId",
                    "type": "uint256"
                },
                {
                    "internalType": "uint256",
                    "name": "_price",
                    "type": "uint256"
                },
                {
                    "internalType": "uint256",
                    "name": "_accessDuration",
                    "type": "uint256"
                }
            ],
            "name": "makeItem",
            "outputs": [],
            "stateMutability": "nonpayable",
            "type": "function"
        },
        {
            "inputs": [],
            "name": "owner",
            "outputs": [
                {
                    "internalType": "address",
                    "name": "",
                    "type": "address"
                }
            ],
            "stateMutability": "view",
            "type": "function"
        },
        {
            "inputs": [
                {
                    "internalType": "uint256",
                    "name": "_itemId",
                    "type": "uint256"
                }
            ],
            "name": "purchaseItem",
            "outputs": [],
            "stateMutability": "payable",
            "type": "function"
        },
        {
            "inputs": [
                {
                    "internalType": "uint256",
                    "name": "_itemId",
                    "type": "uint256"
                }
            ],
            "name": "renewAccess",
            "outputs": [],
            "stateMutability": "payable",
            "type": "function"
        },
        {
            "inputs": [],
            "name": "renounceOwnership",
            "outputs": [],
            "stateMutability": "nonpayable",
            "type": "function"
        },
        {
            "inputs": [
                {
                    "internalType": "address payable",
                    "name": "_newFeeAccount",
                    "type": "address"
                }
            ],
            "name": "setFeeAccount",
            "outputs": [],
            "stateMutability": "nonpayable",
            "type": "function"
        },
        {
            "inputs": [
                {
                    "internalType": "uint256",
                    "name": "_newFeePercent",
                    "type": "uint256"
                }
            ],
            "name": "setFeePercent",
            "outputs": [],
            "stateMutability": "nonpayable",
            "type": "function"
        },
        {
            "inputs": [
                {
                    "internalType": "address",
                    "name": "newOwner",
                    "type": "address"
                }
            ],
            "name": "transferOwnership",
            "outputs": [],
            "stateMutability": "nonpayable",
            "type": "function"
        }
    ],
    "bytecode": "60803460ac57601f610ca238819003918201601f19168301916001600160401b0383118484101760b05780849260209460405283398101031260ac575160015f8181558154336001600160a01b0319821681179093556040519392916001600160a01b03909116907f8be0079c531659141344cd1fd0a4f28419497f9722a3daafe3b4186f6b6457e09080a3600280546001600160a01b03191633179055600355610bdd90816100c58239f35b5f80fd5b634e487b7160e01b5f52604160045260245ffdfe60806040526004361015610011575f80fd5b5f5f3560e01c80631a01e3151461097c5780634b023cf81461093757806365e17c9d1461090f578063696aae08146106de5780636bfb0d01146106c0578063715018a6146106635780637ce3489b146106405780637fd6f15c146106225780638da5cb5b146105f9578063bfb231d214610587578063ca7dd3751461053a578063ced14198146104ca578063d38ea5bf1461030d578063ec79e1e2146101905763f2fde38b146100bf575f80fd5b3461018d57602036600319011261018d576004356001600160a01b0381169081900361018b576100ed610adb565b801561013757600180546001600160a01b0319811683179091556001600160a01b03167f8be0079c531659141344cd1fd0a4f28419497f9722a3daafe3b4186f6b6457e08380a380f35b60405162461bcd60e51b815260206004820152602660248201527f4f776e61626c653a206e6577206f776e657220697320746865207a65726f206160448201526564647265737360d01b6064820152608490fd5b505b80fd5b50602036600319011261018d576101a5610b33565b600435815260056020526040812060038101546078810290808204607814901517156102f957606490048034106102b55760046102529260018060a01b0333165f526006810160205260405f2042905501610218848080808660018060a01b038754165af1610212610a17565b50610a56565b60018060a01b039054167fcb4a9094da4df77fb2c0dbaa5047660b1237e61d82a02176c1be74ca757f25316020604051848152a234610b9a565b610275828080808560018060a01b03600254165af161026f610a17565b50610a9a565b6002546040519182526001600160a01b0316907f34e8a84e537ed93d93ddf39a78816dcbc74df8397c635838b8cc973d4fa943f890602090a26001815580f35b606460405162461bcd60e51b815260206004820152602060248201527f4e6f7420656e6f75676820657468657220746f2072656e6577206163636573736044820152fd5b634e487b7160e01b83526011600452602483fd5b50602036600319011261018d57600435610325610b33565b808252600560205260408220906003820154341061047957606461034b60035434610b87565b04916103578334610b9a565b926004820193610379868080808560018060a01b038b54165af1610212610a17565b84546040519182526001600160a01b0316907fcb4a9094da4df77fb2c0dbaa5047660b1237e61d82a02176c1be74ca757f253190602090a26103ce858080808560018060a01b03600254165af161026f610a17565b6002546040519182526001600160a01b0316907f34e8a84e537ed93d93ddf39a78816dcbc74df8397c635838b8cc973d4fa943f890602090a2335f818152600683016020908152604091829020429055600184015460029094015495548251958652908501959095523490840152926001600160a01b03908116929116907f8b4c9c8a607d67b321582dd8461041b1dc2ceeca70c8b7f37f8e02095cf2e76d90606090a46001815580f35b60405162461bcd60e51b8152602060048201526024808201527f4e6f7420656e6f75676820657468657220746f20636f766572206974656d20706044820152637269636560e01b6064820152608490fd5b503461018d57604036600319011261018d576104e46109cb565b9060043581526005602052604081209160018060a01b03165f5260068201602052600560405f2054920154820180921161052657602082604051904211158152f35b634e487b7160e01b81526011600452602490fd5b503461018d57602036600319011261018d5760043581526005602052600360408220015460035460640190816064116102f9579161057c606492602094610b87565b905004604051908152f35b503461018d57602036600319011261018d57604060c091600435815260056020522080549060018060a01b03600182015416906002810154600382015490600560018060a01b0360048501541693015493604051958652602086015260408501526060840152608083015260a0820152f35b503461018d578060031936011261018d576001546040516001600160a01b039091168152602090f35b503461018d578060031936011261018d576020600354604051908152f35b503461018d57602036600319011261018d5761065a610adb565b60043560035580f35b503461018d578060031936011261018d5761067c610adb565b600180546001600160a01b0319811690915581906001600160a01b03167f8be0079c531659141344cd1fd0a4f28419497f9722a3daafe3b4186f6b6457e08280a380f35b503461018d578060031936011261018d576020600454604051908152f35b503461085b57608036600319011261085b576004356001600160a01b0381169081900361085b5760243590604435606435610717610b33565b81156108ca578015610873576004545f19811461085f57600101600455823b1561085b576040516323b872dd60e01b8152336004820152306024820152604481018590525f8160648183885af1801561085057610818575b50907f655a0cf9c8db81512be9a76dc1c5ae5380b8816ce6ad659cd61b715e2999d59a916005600454808852816020526040882090815560018101866001600160601b0360a01b8254161790558660028201558360038201556004810160018060a01b0333166001600160601b0360a01b82541617905501556004549361080e6040519283923397846040919493926060820195825260208201520152565b0390a36001815580f35b7f655a0cf9c8db81512be9a76dc1c5ae5380b8816ce6ad659cd61b715e2999d59a929195505f610847916109e1565b5f94909161076f565b6040513d5f823e3d90fd5b5f80fd5b634e487b7160e01b5f52601160045260245ffd5b60405162461bcd60e51b815260206004820152602960248201527f416363657373206475726174696f6e206d7573742062652067726561746572206044820152687468616e207a65726f60b81b6064820152608490fd5b60405162461bcd60e51b815260206004820152601f60248201527f5072696365206d7573742062652067726561746572207468616e207a65726f006044820152606490fd5b3461085b575f36600319011261085b576002546040516001600160a01b039091168152602090f35b3461085b57602036600319011261085b576004356001600160a01b0381169081900361085b57610965610adb565b6001600160601b0360a01b60025416176002555f80f35b3461085b57604036600319011261085b5760406109976109cb565b6004355f526005602052815f209060018060a01b03165f52600681016020526005825f205491015482519182526020820152f35b602435906001600160a01b038216820361085b57565b90601f8019910116810190811067ffffffffffffffff821117610a0357604052565b634e487b7160e01b5f52604160045260245ffd5b3d15610a51573d9067ffffffffffffffff8211610a035760405191610a46601f8201601f1916602001846109e1565b82523d5f602084013e565b606090565b15610a5d57565b60405162461bcd60e51b815260206004820152601560248201527414d95b1b195c881c185e5b595b9d0819985a5b1959605a1b6044820152606490fd5b15610aa157565b60405162461bcd60e51b8152602060048201526012602482015271119959481c185e5b595b9d0819985a5b195960721b6044820152606490fd5b6001546001600160a01b03163303610aef57565b606460405162461bcd60e51b815260206004820152602060248201527f4f776e61626c653a2063616c6c6572206973206e6f7420746865206f776e65726044820152fd5b60025f5414610b425760025f55565b60405162461bcd60e51b815260206004820152601f60248201527f5265656e7472616e637947756172643a207265656e7472616e742063616c6c006044820152606490fd5b8181029291811591840414171561085f57565b9190820391821161085f5756fea264697066735822122051ccc99e0f30df79bc3315646804f7dd0b6bba1767e34da62e09afccc256754d64736f6c634300081b0033",
    "sourcePath": "c:/Users/Praka/OneDrive/Documents/Capstone/Swar/BitCrew/src/backend/contracts/Marketplace.sol",
    "compiler": {
        "name": "solc",
        "version": "0.8.27+commit.40a35a09"
    },
    "functionHashes": {
        "feeAccount()": "65e17c9d",
        "feePercent()": "7fd6f15c",
        "getPurchaseInfo(uint256,address)": "1a01e315",
        "getTotalPrice(uint256)": "ca7dd375",
        "hasAccess(uint256,address)": "ced14198",
        "itemCount()": "6bfb0d01",
        "items(uint256)": "bfb231d2",
        "makeItem(address,uint256,uint256,uint256)": "696aae08",
        "owner()": "8da5cb5b",
        "purchaseItem(uint256)": "d38ea5bf",
        "renewAccess(uint256)": "ec79e1e2",
        "renounceOwnership()": "715018a6",
        "setFeeAccount(address)": "4b023cf8",
        "setFeePercent(uint256)": "7ce3489b",
        "transferOwnership(address)": "f2fde38b"
    },
    "gasEstimates": {
        "creation": {
            "codeDepositCost": "607400",
            "executionCost": "infinite",
            "totalCost": "infinite"
        },
        "external": {
            "feeAccount()": "2318",
            "feePercent()": "2407",
            "getPurchaseInfo(uint256,address)": "4600",
            "getTotalPrice(uint256)": "4781",
            "hasAccess(uint256,address)": "4873",
            "itemCount()": "2341",
            "items(uint256)": "13188",
            "makeItem(address,uint256,uint256,uint256)": "infinite",
            "owner()": "2453",
            "purchaseItem(uint256)": "infinite",
            "renewAccess(uint256)": "infinite",
            "renounceOwnership()": "28171",
            "setFeeAccount(address)": "26599",
            "setFeePercent(uint256)": "24533",
            "transferOwnership(address)": "28435"
        }
    }
}