{
    "contractName": "NFT",
    "abi": [
        {
            "inputs": [],
            "stateMutability": "nonpayable",
            "type": "constructor"
        },
        {
            "anonymous": false,
            "inputs": [
                {
                    "indexed": true,
                    "internalType": "address",
                    "name": "owner",
                    "type": "address"
                },
                {
                    "indexed": true,
                    "internalType": "address",
                    "name": "approved",
                    "type": "address"
                },
                {
                    "indexed": true,
                    "internalType": "uint256",
                    "name": "tokenId",
                    "type": "uint256"
                }
            ],
            "name": "Approval",
            "type": "event"
        },
        {
            "anonymous": false,
            "inputs": [
                {
                    "indexed": true,
                    "internalType": "address",
                    "name": "owner",
                    "type": "address"
                },
                {
                    "indexed": true,
                    "internalType": "address",
                    "name": "operator",
                    "type": "address"
                },
                {
                    "indexed": false,
                    "internalType": "bool",
                    "name": "approved",
                    "type": "bool"
                }
            ],
            "name": "ApprovalForAll",
            "type": "event"
        },
        {
            "anonymous": false,
            "inputs": [
                {
                    "indexed": false,
                    "internalType": "uint256",
                    "name": "_fromTokenId",
                    "type": "uint256"
                },
                {
                    "indexed": false,
                    "internalType": "uint256",
                    "name": "_toTokenId",
                    "type": "uint256"
                }
            ],
            "name": "BatchMetadataUpdate",
            "type": "event"
        },
        {
            "anonymous": false,
            "inputs": [
                {
                    "indexed": false,
                    "internalType": "uint256",
                    "name": "_tokenId",
                    "type": "uint256"
                }
            ],
            "name": "MetadataUpdate",
            "type": "event"
        },
        {
            "anonymous": false,
            "inputs": [
                {
                    "indexed": true,
                    "internalType": "address",
                    "name": "previousOwner",
                    "type": "address"
                },
                {
                    "indexed": true,
                    "internalType": "address",
                    "name": "newOwner",
                    "type": "address"
                }
            ],
            "name": "OwnershipTransferred",
            "type": "event"
        },
        {
            "anonymous": false,
            "inputs": [
                {
                    "indexed": true,
                    "internalType": "address",
                    "name": "from",
                    "type": "address"
                },
                {
                    "indexed": true,
                    "internalType": "address",
                    "name": "to",
                    "type": "address"
                },
                {
                    "indexed": true,
                    "internalType": "uint256",
                    "name": "tokenId",
                    "type": "uint256"
                }
            ],
            "name": "Transfer",
            "type": "event"
        },
        {
            "inputs": [
                {
                    "internalType": "address",
                    "name": "to",
                    "type": "address"
                },
                {
                    "internalType": "uint256",
                    "name": "tokenId",
                    "type": "uint256"
                }
            ],
            "name": "approve",
            "outputs": [],
            "stateMutability": "nonpayable",
            "type": "function"
        },
        {
            "inputs": [
                {
                    "internalType": "address",
                    "name": "owner",
                    "type": "address"
                }
            ],
            "name": "balanceOf",
            "outputs": [
                {
                    "internalType": "uint256",
                    "name": "",
                    "type": "uint256"
                }
            ],
            "stateMutability": "view",
            "type": "function"
        },
        {
            "inputs": [
                {
                    "internalType": "uint256",
                    "name": "tokenId",
                    "type": "uint256"
                }
            ],
            "name": "getApproved",
            "outputs": [
                {
                    "internalType": "address",
                    "name": "",
                    "type": "address"
                }
            ],
            "stateMutability": "view",
            "type": "function"
        },
        {
            "inputs": [
                {
                    "internalType": "address",
                    "name": "owner",
                    "type": "address"
                },
                {
                    "internalType": "address",
                    "name": "operator",
                    "type": "address"
                }
            ],
            "name": "isApprovedForAll",
            "outputs": [
                {
                    "internalType": "bool",
                    "name": "",
                    "type": "bool"
                }
            ],
            "stateMutability": "view",
            "type": "function"
        },
        {
            "inputs": [
                {
                    "internalType": "string",
                    "name": "_tokenURI",
                    "type": "string"
                }
            ],
            "name": "mint",
            "outputs": [
                {
                    "internalType": "uint256",
                    "name": "",
                    "type": "uint256"
                }
            ],
            "stateMutability": "nonpayable",
            "type": "function"
        },
        {
            "inputs": [],
            "name": "name",
            "outputs": [
                {
                    "internalType": "string",
                    "name": "",
                    "type": "string"
                }
            ],
            "stateMutability": "view",
            "type": "function"
        },
        {
            "inputs": [],
            "name": "owner",
            "outputs": [
                {
                    "internalType": "address",
                    "name": "",
                    "type": "address"
                }
            ],
            "stateMutability": "view",
            "type": "function"
        },
        {
            "inputs": [
                {
                    "internalType": "uint256",
                    "name": "tokenId",
                    "type": "uint256"
                }
            ],
            "name": "ownerOf",
            "outputs": [
                {
                    "internalType": "address",
                    "name": "",
                    "type": "address"
                }
            ],
            "stateMutability": "view",
            "type": "function"
        },
        {
            "inputs": [],
            "name": "renounceOwnership",
            "outputs": [],
            "stateMutability": "nonpayable",
            "type": "function"
        },
        {
            "inputs": [
                {
                    "internalType": "address",
                    "name": "from",
                    "type": "address"
                },
                {
                    "internalType": "address",
                    "name": "to",
                    "type": "address"
                },
                {
                    "internalType": "uint256",
                    "name": "tokenId",
                    "type": "uint256"
                }
            ],
            "name": "safeTransferFrom",
            "outputs": [],
            "stateMutability": "nonpayable",
            "type": "function"
        },
        {
            "inputs": [
                {
                    "internalType": "address",
                    "name": "from",
                    "type": "address"
                },
                {
                    "internalType": "address",
                    "name": "to",
                    "type": "address"
                },
                {
                    "internalType": "uint256",
                    "name": "tokenId",
                    "type": "uint256"
                },
                {
                    "internalType": "bytes",
                    "name": "data",
                    "type": "bytes"
                }
            ],
            "name": "safeTransferFrom",
            "outputs": [],
            "stateMutability": "nonpayable",
            "type": "function"
        },
        {
            "inputs": [
                {
                    "internalType": "address",
                    "name": "operator",
                    "type": "address"
                },
                {
                    "internalType": "bool",
                    "name": "approved",
                    "type": "bool"
                }
            ],
            "name": "setApprovalForAll",
            "outputs": [],
            "stateMutability": "nonpayable",
            "type": "function"
        },
        {
            "inputs": [
                {
                    "internalType": "bytes4",
                    "name": "interfaceId",
                    "type": "bytes4"
                }
            ],
            "name": "supportsInterface",
            "outputs": [
                {
                    "internalType": "bool",
                    "name": "",
                    "type": "bool"
                }
            ],
            "stateMutability": "view",
            "type": "function"
        },
        {
            "inputs": [],
            "name": "symbol",
            "outputs": [
                {
                    "internalType": "string",
                    "name": "",
                    "type": "string"
                }
            ],
            "stateMutability": "view",
            "type": "function"
        },
        {
            "inputs": [],
            "name": "tokenCount",
            "outputs": [
                {
                    "internalType": "uint256",
                    "name": "",
                    "type": "uint256"
                }
            ],
            "stateMutability": "view",
            "type": "function"
        },
        {
            "inputs": [
                {
                    "internalType": "uint256",
                    "name": "tokenId",
                    "type": "uint256"
                }
            ],
            "name": "tokenURI",
            "outputs": [
                {
                    "internalType": "string",
                    "name": "",
                    "type": "string"
                }
            ],
            "stateMutability": "view",
            "type": "function"
        },
        {
            "inputs": [
                {
                    "internalType": "address",
                    "name": "from",
                    "type": "address"
                },
                {
                    "internalType": "address",
                    "name": "to",
                    "type": "address"
                },
                {
                    "internalType": "uint256",
                    "name": "tokenId",
                    "type": "uint256"
                }
            ],
            "name": "transferFrom",
            "outputs": [],
            "stateMutability": "nonpayable",
            "type": "function"
        },
        {
            "inputs": [
                {
                    "internalType": "address",
                    "name": "newOwner",
                    "type": "address"
                }
            ],
            "name": "transferOwnership",
            "outputs": [],
            "stateMutability": "nonpayable",
            "type": "function"
        }
    ],
    "bytecode": "60806040523461035a57604080519081016001600160401b03811182821017610270576040908152600e82526d14ddd85c88135d5cda58c813919560921b602083015280519081016001600160401b0381118282101761027057604052600781526614d5d05493919560ca1b602082015281516001600160401b038111610270575f54600181811c91168015610350575b602082101461025257601f81116102ee575b50602092601f821160011461028f57928192935f92610284575b50508160011b915f199060031b1c1916175f555b80516001600160401b03811161027057600154600181811c91168015610266575b602082101461025257601f81116101ef575b50602091601f821160011461018f579181925f92610184575b50508160011b915f199060031b1c1916176001555b60078054336001600160a01b03198216811790925560405191906001600160a01b03167f8be0079c531659141344cd1fd0a4f28419497f9722a3daafe3b4186f6b6457e05f80a3611437908161035f8239f35b015190505f8061011c565b601f1982169260015f52805f20915f5b8581106101d7575083600195106101bf575b505050811b01600155610131565b01515f1960f88460031b161c191690555f80806101b1565b9192602060018192868501518155019401920161019f565b60015f527fb10e2d527612073b26eecdfd717e6a320cf44b4afac2b0732d9fcbe2b7fa0cf6601f830160051c81019160208410610248575b601f0160051c01905b81811061023d5750610103565b5f8155600101610230565b9091508190610227565b634e487b7160e01b5f52602260045260245ffd5b90607f16906100f1565b634e487b7160e01b5f52604160045260245ffd5b015190505f806100bc565b601f198216935f8052805f20915f5b8681106102d657508360019596106102be575b505050811b015f556100d0565b01515f1960f88460031b161c191690555f80806102b1565b9192602060018192868501518155019401920161029e565b5f80527f290decd9548b62a8d60345a988386fc84ba6bc95484008f6362f93160ef3e563601f830160051c81019160208410610346575b601f0160051c01905b81811061033b57506100a2565b5f815560010161032e565b9091508190610325565b90607f1690610090565b5f80fdfe6080806040526004361015610012575f80fd5b5f3560e01c90816301ffc9a714610bd35750806306fdde0314610b31578063081812fc14610b13578063095ea7b31461098d57806323b872dd1461096957806342842e0e146109355780636352211e1461090557806370a0823114610870578063715018a6146108155780638da5cb5b146107ed57806395d89b41146107235780639f181b5e14610706578063a22cb46514610638578063b88d4fde146105b5578063c87b56dd1461057e578063d85d3d2714610204578063e985e9c5146101ad5763f2fde38b146100e2575f80fd5b346101a95760203660031901126101a9576100fb610c7c565b610103611177565b6001600160a01b0316801561015557600780546001600160a01b0319811683179091556001600160a01b03167f8be0079c531659141344cd1fd0a4f28419497f9722a3daafe3b4186f6b6457e05f80a3005b60405162461bcd60e51b815260206004820152602660248201527f4f776e61626c653a206e6577206f776e657220697320746865207a65726f206160448201526564647265737360d01b6064820152608490fd5b5f80fd5b346101a95760403660031901126101a9576101c6610c7c565b6101ce610c92565b9060018060a01b03165f52600560205260405f209060018060a01b03165f52602052602060ff60405f2054166040519015158152f35b346101a95760203660031901126101a95760043567ffffffffffffffff81116101a957366023820112156101a957610246903690602481600401359101610d20565b6008545f19811461056a5760010190816008556020916040519061026a8483610ce2565b5f82523315610527575f818152600260205260409020546103239261031e9290916102a1906001600160a01b031615155b156113b5565b5f818152600260205260409020546102c3906001600160a01b0316151561029b565b335f8181526003885260408082208054600101905583825260028952812080546001600160a01b031916831790558291907fddf252ad1be2c89b69c2b068fc378daa952ba7f163c4a11628f55a4df523b3ef8180a433611246565b611222565b6008545f818152600260205260409020549091906001600160a01b0316156104cb57815f526006835260405f209181519267ffffffffffffffff84116104b757849261036f8254610d56565b601f8111610465575b508390601f86116001146103e2577ff8e1a15aba9398e019f0b49df1a4fde98ee17ae345cb5f6b5e2c27f5033e8ce795915f91836103d7575b50508160011b915f199060031b1c19161790555b604051908152a1600854604051908152f35b0151905087806103b1565b90601f19861691835f52855f20925f5b81811061044e57509160019391887ff8e1a15aba9398e019f0b49df1a4fde98ee17ae345cb5f6b5e2c27f5033e8ce7999410610436575b505050811b0190556103c5565b01515f1960f88460031b161c19169055878080610429565b9293876001819287860151815501950193016103f2565b9091809394505f52855f20601f860160051c8101918787106104ad575b90601f8896959493920160051c01905b81811061049f5750610378565b5f8155879550600101610492565b9091508190610482565b634e487b7160e01b5f52604160045260245ffd5b60405162461bcd60e51b815260048101849052602e60248201527f45524337323155524953746f726167653a2055524920736574206f66206e6f6e60448201526d32bc34b9ba32b73a103a37b5b2b760911b6064820152608490fd5b6064846040519062461bcd60e51b825280600483015260248201527f4552433732313a206d696e7420746f20746865207a65726f20616464726573736044820152fd5b634e487b7160e01b5f52601160045260245ffd5b346101a95760203660031901126101a9576105b161059d600435610e9d565b604051918291602083526020830190610c58565b0390f35b346101a95760803660031901126101a9576105ce610c7c565b6105d6610c92565b906064359060443567ffffffffffffffff83116101a957366023840112156101a9576106369361061361031e943690602481600401359101610d20565b926106266106218433610f7a565b610dca565b610631838383611049565b61135d565b005b346101a95760403660031901126101a957610651610c7c565b602435908115158092036101a9576001600160a01b0316903382146106c157335f52600560205260405f20825f5260205260405f2060ff1981541660ff83161790556040519081527f17307eab39ab6107e8899845ad3d59bd9653f200f220920489ca2b5937696c3160203392a3005b60405162461bcd60e51b815260206004820152601960248201527f4552433732313a20617070726f766520746f2063616c6c6572000000000000006044820152606490fd5b346101a9575f3660031901126101a9576020600854604051908152f35b346101a9575f3660031901126101a9576040515f60015461074381610d56565b80845290600181169081156107c9575060011461076b575b6105b18361059d81850382610ce2565b91905060015f527fb10e2d527612073b26eecdfd717e6a320cf44b4afac2b0732d9fcbe2b7fa0cf6915f905b8082106107af5750909150810160200161059d61075b565b919260018160209254838588010152019101909291610797565b60ff191660208086019190915291151560051b8401909101915061059d905061075b565b346101a9575f3660031901126101a9576007546040516001600160a01b039091168152602090f35b346101a9575f3660031901126101a95761082d611177565b600780546001600160a01b031981169091555f906001600160a01b03167f8be0079c531659141344cd1fd0a4f28419497f9722a3daafe3b4186f6b6457e08280a3005b346101a95760203660031901126101a9576001600160a01b03610891610c7c565b1680156108ae575f526003602052602060405f2054604051908152f35b60405162461bcd60e51b815260206004820152602960248201527f4552433732313a2061646472657373207a65726f206973206e6f7420612076616044820152683634b21037bbb732b960b91b6064820152608490fd5b346101a95760203660031901126101a9576020610923600435610e78565b6040516001600160a01b039091168152f35b346101a95761063661031e61094936610ca8565b9060405192610959602085610ce2565b5f84526106266106218433610f7a565b346101a95761063661097a36610ca8565b916109886106218433610f7a565b611049565b346101a95760403660031901126101a9576109a6610c7c565b602435906001600160a01b036109bb83610e78565b6001600160a01b039092169116818114610ac457803314908115610aa0575b5015610a35575f82815260046020526040902080546001600160a01b031916821790556001600160a01b03610a0e83610e78565b167f8c5be1e5ebec7d5bd14f71427d1e84f3dd0314c0f7b2291e5b200ac8c7c3b9255f80a4005b60405162461bcd60e51b815260206004820152603d60248201527f4552433732313a20617070726f76652063616c6c6572206973206e6f7420746f60448201527f6b656e206f776e6572206f7220617070726f76656420666f7220616c6c0000006064820152608490fd5b5f90815260056020908152604080832033845290915290205460ff169050836109da565b60405162461bcd60e51b815260206004820152602160248201527f4552433732313a20617070726f76616c20746f2063757272656e74206f776e656044820152603960f91b6064820152608490fd5b346101a95760203660031901126101a9576020610923600435610d8e565b346101a9575f3660031901126101a9576040515f5f54610b5081610d56565b80845290600181169081156107c95750600114610b77576105b18361059d81850382610ce2565b5f8080527f290decd9548b62a8d60345a988386fc84ba6bc95484008f6362f93160ef3e563939250905b808210610bb95750909150810160200161059d61075b565b919260018160209254838588010152019101909291610ba1565b346101a95760203660031901126101a9576004359063ffffffff60e01b82168092036101a957602091632483248360e11b8114908115610c15575b5015158152f35b6380ac58cd60e01b811491508115610c47575b8115610c36575b5083610c0e565b6301ffc9a760e01b14905083610c2f565b635b5e139f60e01b81149150610c28565b805180835260209291819084018484015e5f828201840152601f01601f1916010190565b600435906001600160a01b03821682036101a957565b602435906001600160a01b03821682036101a957565b60609060031901126101a9576004356001600160a01b03811681036101a957906024356001600160a01b03811681036101a9579060443590565b90601f8019910116810190811067ffffffffffffffff8211176104b757604052565b67ffffffffffffffff81116104b757601f01601f191660200190565b929192610d2c82610d04565b91610d3a6040519384610ce2565b8294818452818301116101a9578281602093845f960137010152565b90600182811c92168015610d84575b6020831014610d7057565b634e487b7160e01b5f52602260045260245ffd5b91607f1691610d65565b5f81815260026020526040902054610db0906001600160a01b03161515610e2c565b5f908152600460205260409020546001600160a01b031690565b15610dd157565b60405162461bcd60e51b815260206004820152602d60248201527f4552433732313a2063616c6c6572206973206e6f7420746f6b656e206f776e6560448201526c1c881bdc88185c1c1c9bdd9959609a1b6064820152608490fd5b15610e3357565b60405162461bcd60e51b815260206004820152601860248201527f4552433732313a20696e76616c696420746f6b656e20494400000000000000006044820152606490fd5b5f908152600260205260409020546001600160a01b0316610e9a811515610e2c565b90565b5f81815260026020526040902054610ebf906001600160a01b03161515610e2c565b5f52600660205260405f2060405190815f825492610edc84610d56565b8084529360018116908115610f585750600114610f14575b50610f0192500382610ce2565b5f604051610f10602082610ce2565b5290565b90505f9291925260205f20905f915b818310610f3c575050906020610f01928201015f610ef4565b6020919350806001915483858801015201910190918392610f23565b905060209250610f0194915060ff191682840152151560051b8201015f610ef4565b906001600160a01b03610f8c82610e78565b6001600160a01b0390931692168281149291908315610fcc575b508215610fb257505090565b9091506001600160a01b0390610fc790610d8e565b161490565b9092505f52600560205260405f20815f5260205260ff60405f205416915f610fa6565b15610ff657565b60405162461bcd60e51b815260206004820152602560248201527f4552433732313a207472616e736665722066726f6d20696e636f72726563742060448201526437bbb732b960d91b6064820152608490fd5b9061106a61105684610e78565b6001600160a01b0393841693168314610fef565b6001600160a01b031690811561112657611096816001600160a01b0361108f86610e78565b1614610fef565b825f52600460205260405f206bffffffffffffffffffffffff60a01b8154169055805f52600360205260405f205f198154019055815f52600360205260405f2060018154019055825f52600260205260405f20826bffffffffffffffffffffffff60a01b8254161790557fddf252ad1be2c89b69c2b068fc378daa952ba7f163c4a11628f55a4df523b3ef5f80a4565b60405162461bcd60e51b8152602060048201526024808201527f4552433732313a207472616e7366657220746f20746865207a65726f206164646044820152637265737360e01b6064820152608490fd5b6007546001600160a01b0316330361118b57565b606460405162461bcd60e51b815260206004820152602060248201527f4f776e61626c653a2063616c6c6572206973206e6f7420746865206f776e65726044820152fd5b60809060208152603260208201527f4552433732313a207472616e7366657220746f206e6f6e20455243373231526560408201527131b2b4bb32b91034b6b83632b6b2b73a32b960711b60608201520190565b1561122957565b60405162461bcd60e51b815280611242600482016111cf565b0390fd5b91823b156113555761128b926020925f604051809681958294630a85bd0160e11b84523360048501528460248501526044840152608060648401526084830190610c58565b03926001600160a01b03165af15f9181611310575b506112fa573d156112f3573d6112b581610d04565b906112c36040519283610ce2565b81523d5f602083013e5b805190816112ee5760405162461bcd60e51b815280611242600482016111cf565b602001fd5b60606112cd565b6001600160e01b031916630a85bd0160e11b1490565b9091506020813d60201161134d575b8161132c60209383610ce2565b810103126101a957516001600160e01b0319811681036101a957905f6112a0565b3d915061131f565b505050600190565b919290803b156113ac5761128b935f60209460405196879586948593630a85bd0160e11b855233600486015260018060a01b031660248501526044840152608060648401526084830190610c58565b50505050600190565b156113bc57565b60405162461bcd60e51b815260206004820152601c60248201527f4552433732313a20746f6b656e20616c7265616479206d696e746564000000006044820152606490fdfea26469706673582212202ef2731e85bef6753cdb8c7a87ea77116d475aa975fa2d0892fad9fdb98ed4ae64736f6c634300081b0033",
    "sourcePath": "c:/Users/Praka/OneDrive/Documents/Capstone/Swar/BitCrew/src/backend/contracts/NFT.sol",
    "compiler": {
        "name": "solc",
        "version": "0.8.27+commit.40a35a09"
    },
    "functionHashes": {
        "approve(address,uint256)": "095ea7b3",
        "balanceOf(address)": "70a08231",
        "getApproved(uint256)": "081812fc",
        "isApprovedForAll(address,address)": "e985e9c5",
        "mint(string)": "d85d3d27",
        "name()": "06fdde03",
        "owner()": "8da5cb5b",
        "ownerOf(uint256)": "6352211e",
        "renounceOwnership()": "715018a6",
        "safeTransferFrom(address,address,uint256)": "42842e0e",
        "safeTransferFrom(address,address,uint256,bytes)": "b88d4fde",
        "setApprovalForAll(address,bool)": "a22cb465",
        "supportsInterface(bytes4)": "01ffc9a7",
        "symbol()": "95d89b41",
        "tokenCount()": "9f181b5e",
        "tokenURI(uint256)": "c87b56dd",
        "transferFrom(address,address,uint256)": "23b872dd",
        "transferOwnership(address)": "f2fde38b"
    },
    "gasEstimates": {
        "creation": {
            "codeDepositCost": "1035000",
            "executionCost": "infinite",
            "totalCost": "infinite"
        },
        "external": {
            "approve(address,uint256)": "infinite",
            "balanceOf(address)": "2579",
            "getApproved(uint256)": "4673",
            "isApprovedForAll(address,address)": "2925",
            "mint(string)": "infinite",
            "name()": "infinite",
            "owner()": "2478",
            "ownerOf(uint256)": "2600",
            "renounceOwnership()": "28236",
            "safeTransferFrom(address,address,uint256)": "infinite",
            "safeTransferFrom(address,address,uint256,bytes)": "infinite",
            "setApprovalForAll(address,bool)": "26688",
            "supportsInterface(bytes4)": "379",
            "symbol()": "infinite",
            "tokenCount()": "2498",
            "tokenURI(uint256)": "infinite",
            "transferFrom(address,address,uint256)": "infinite",
            "transferOwnership(address)": "28542"
        }
    }
}